{
  "_format": "hh-sol-artifact-1",
  "contractName": "GFE",
  "sourceName": "contracts/GFE.sol",
  "abi": [
    {
      "inputs": [],
      "stateMutability": "nonpayable",
      "type": "constructor"
    },
    {
      "inputs": [],
      "name": "InvalidShortString",
      "type": "error"
    },
    {
      "inputs": [
        {
          "internalType": "string",
          "name": "str",
          "type": "string"
        }
      ],
      "name": "StringTooLong",
      "type": "error"
    },
    {
      "anonymous": false,
      "inputs": [
        {
          "indexed": true,
          "internalType": "address",
          "name": "owner",
          "type": "address"
        },
        {
          "indexed": true,
          "internalType": "address",
          "name": "spender",
          "type": "address"
        },
        {
          "indexed": false,
          "internalType": "uint256",
          "name": "value",
          "type": "uint256"
        }
      ],
      "name": "Approval",
      "type": "event"
    },
    {
      "anonymous": false,
      "inputs": [
        {
          "indexed": true,
          "internalType": "address",
          "name": "delegator",
          "type": "address"
        },
        {
          "indexed": true,
          "internalType": "address",
          "name": "fromDelegate",
          "type": "address"
        },
        {
          "indexed": true,
          "internalType": "address",
          "name": "toDelegate",
          "type": "address"
        }
      ],
      "name": "DelegateChanged",
      "type": "event"
    },
    {
      "anonymous": false,
      "inputs": [
        {
          "indexed": true,
          "internalType": "address",
          "name": "delegate",
          "type": "address"
        },
        {
          "indexed": false,
          "internalType": "uint256",
          "name": "previousBalance",
          "type": "uint256"
        },
        {
          "indexed": false,
          "internalType": "uint256",
          "name": "newBalance",
          "type": "uint256"
        }
      ],
      "name": "DelegateVotesChanged",
      "type": "event"
    },
    {
      "anonymous": false,
      "inputs": [],
      "name": "EIP712DomainChanged",
      "type": "event"
    },
    {
      "anonymous": false,
      "inputs": [
        {
          "indexed": true,
          "internalType": "address",
          "name": "from",
          "type": "address"
        },
        {
          "indexed": true,
          "internalType": "address",
          "name": "to",
          "type": "address"
        },
        {
          "indexed": false,
          "internalType": "uint256",
          "name": "value",
          "type": "uint256"
        }
      ],
      "name": "Transfer",
      "type": "event"
    },
    {
      "inputs": [],
      "name": "CLOCK_MODE",
      "outputs": [
        {
          "internalType": "string",
          "name": "",
          "type": "string"
        }
      ],
      "stateMutability": "view",
      "type": "function"
    },
    {
      "inputs": [],
      "name": "DOMAIN_SEPARATOR",
      "outputs": [
        {
          "internalType": "bytes32",
          "name": "",
          "type": "bytes32"
        }
      ],
      "stateMutability": "view",
      "type": "function"
    },
    {
      "inputs": [],
      "name": "admin",
      "outputs": [
        {
          "internalType": "address",
          "name": "",
          "type": "address"
        }
      ],
      "stateMutability": "view",
      "type": "function"
    },
    {
      "inputs": [
        {
          "internalType": "address",
          "name": "owner",
          "type": "address"
        },
        {
          "internalType": "address",
          "name": "spender",
          "type": "address"
        }
      ],
      "name": "allowance",
      "outputs": [
        {
          "internalType": "uint256",
          "name": "",
          "type": "uint256"
        }
      ],
      "stateMutability": "view",
      "type": "function"
    },
    {
      "inputs": [
        {
          "internalType": "address",
          "name": "spender",
          "type": "address"
        },
        {
          "internalType": "uint256",
          "name": "amount",
          "type": "uint256"
        }
      ],
      "name": "approve",
      "outputs": [
        {
          "internalType": "bool",
          "name": "",
          "type": "bool"
        }
      ],
      "stateMutability": "nonpayable",
      "type": "function"
    },
    {
      "inputs": [
        {
          "internalType": "address",
          "name": "account",
          "type": "address"
        }
      ],
      "name": "balanceOf",
      "outputs": [
        {
          "internalType": "uint256",
          "name": "",
          "type": "uint256"
        }
      ],
      "stateMutability": "view",
      "type": "function"
    },
    {
      "inputs": [
        {
          "internalType": "address",
          "name": "account",
          "type": "address"
        },
        {
          "internalType": "uint32",
          "name": "pos",
          "type": "uint32"
        }
      ],
      "name": "checkpoints",
      "outputs": [
        {
          "components": [
            {
              "internalType": "uint32",
              "name": "fromBlock",
              "type": "uint32"
            },
            {
              "internalType": "uint224",
              "name": "votes",
              "type": "uint224"
            }
          ],
          "internalType": "struct ERC20Votes.Checkpoint",
          "name": "",
          "type": "tuple"
        }
      ],
      "stateMutability": "view",
      "type": "function"
    },
    {
      "inputs": [],
      "name": "clock",
      "outputs": [
        {
          "internalType": "uint48",
          "name": "",
          "type": "uint48"
        }
      ],
      "stateMutability": "view",
      "type": "function"
    },
    {
      "inputs": [],
      "name": "decimals",
      "outputs": [
        {
          "internalType": "uint8",
          "name": "",
          "type": "uint8"
        }
      ],
      "stateMutability": "view",
      "type": "function"
    },
    {
      "inputs": [
        {
          "internalType": "address",
          "name": "spender",
          "type": "address"
        },
        {
          "internalType": "uint256",
          "name": "subtractedValue",
          "type": "uint256"
        }
      ],
      "name": "decreaseAllowance",
      "outputs": [
        {
          "internalType": "bool",
          "name": "",
          "type": "bool"
        }
      ],
      "stateMutability": "nonpayable",
      "type": "function"
    },
    {
      "inputs": [
        {
          "internalType": "address",
          "name": "delegatee",
          "type": "address"
        }
      ],
      "name": "delegate",
      "outputs": [],
      "stateMutability": "nonpayable",
      "type": "function"
    },
    {
      "inputs": [
        {
          "internalType": "address",
          "name": "delegatee",
          "type": "address"
        },
        {
          "internalType": "uint256",
          "name": "nonce",
          "type": "uint256"
        },
        {
          "internalType": "uint256",
          "name": "expiry",
          "type": "uint256"
        },
        {
          "internalType": "uint8",
          "name": "v",
          "type": "uint8"
        },
        {
          "internalType": "bytes32",
          "name": "r",
          "type": "bytes32"
        },
        {
          "internalType": "bytes32",
          "name": "s",
          "type": "bytes32"
        }
      ],
      "name": "delegateBySig",
      "outputs": [],
      "stateMutability": "nonpayable",
      "type": "function"
    },
    {
      "inputs": [
        {
          "internalType": "address",
          "name": "account",
          "type": "address"
        }
      ],
      "name": "delegates",
      "outputs": [
        {
          "internalType": "address",
          "name": "",
          "type": "address"
        }
      ],
      "stateMutability": "view",
      "type": "function"
    },
    {
      "inputs": [],
      "name": "eip712Domain",
      "outputs": [
        {
          "internalType": "bytes1",
          "name": "fields",
          "type": "bytes1"
        },
        {
          "internalType": "string",
          "name": "name",
          "type": "string"
        },
        {
          "internalType": "string",
          "name": "version",
          "type": "string"
        },
        {
          "internalType": "uint256",
          "name": "chainId",
          "type": "uint256"
        },
        {
          "internalType": "address",
          "name": "verifyingContract",
          "type": "address"
        },
        {
          "internalType": "bytes32",
          "name": "salt",
          "type": "bytes32"
        },
        {
          "internalType": "uint256[]",
          "name": "extensions",
          "type": "uint256[]"
        }
      ],
      "stateMutability": "view",
      "type": "function"
    },
    {
      "inputs": [
        {
          "internalType": "address",
          "name": "from",
          "type": "address"
        },
        {
          "internalType": "address",
          "name": "to",
          "type": "address"
        },
        {
          "internalType": "uint256",
          "name": "amount",
          "type": "uint256"
        }
      ],
      "name": "forceTransfer",
      "outputs": [],
      "stateMutability": "nonpayable",
      "type": "function"
    },
    {
      "inputs": [],
      "name": "getAdminAddress",
      "outputs": [
        {
          "internalType": "address",
          "name": "",
          "type": "address"
        }
      ],
      "stateMutability": "view",
      "type": "function"
    },
    {
      "inputs": [],
      "name": "getMinterAddress",
      "outputs": [
        {
          "internalType": "address",
          "name": "",
          "type": "address"
        }
      ],
      "stateMutability": "view",
      "type": "function"
    },
    {
      "inputs": [
        {
          "internalType": "uint256",
          "name": "timepoint",
          "type": "uint256"
        }
      ],
      "name": "getPastTotalSupply",
      "outputs": [
        {
          "internalType": "uint256",
          "name": "",
          "type": "uint256"
        }
      ],
      "stateMutability": "view",
      "type": "function"
    },
    {
      "inputs": [
        {
          "internalType": "address",
          "name": "account",
          "type": "address"
        },
        {
          "internalType": "uint256",
          "name": "timepoint",
          "type": "uint256"
        }
      ],
      "name": "getPastVotes",
      "outputs": [
        {
          "internalType": "uint256",
          "name": "",
          "type": "uint256"
        }
      ],
      "stateMutability": "view",
      "type": "function"
    },
    {
      "inputs": [],
      "name": "getTokenHolders",
      "outputs": [
        {
          "internalType": "address[]",
          "name": "",
          "type": "address[]"
        }
      ],
      "stateMutability": "view",
      "type": "function"
    },
    {
      "inputs": [
        {
          "internalType": "address",
          "name": "account",
          "type": "address"
        }
      ],
      "name": "getVotes",
      "outputs": [
        {
          "internalType": "uint256",
          "name": "",
          "type": "uint256"
        }
      ],
      "stateMutability": "view",
      "type": "function"
    },
    {
      "inputs": [
        {
          "internalType": "address",
          "name": "minterAddress",
          "type": "address"
        }
      ],
      "name": "giveMinterRole",
      "outputs": [],
      "stateMutability": "nonpayable",
      "type": "function"
    },
    {
      "inputs": [
        {
          "internalType": "address",
          "name": "spender",
          "type": "address"
        },
        {
          "internalType": "uint256",
          "name": "addedValue",
          "type": "uint256"
        }
      ],
      "name": "increaseAllowance",
      "outputs": [
        {
          "internalType": "bool",
          "name": "",
          "type": "bool"
        }
      ],
      "stateMutability": "nonpayable",
      "type": "function"
    },
    {
      "inputs": [
        {
          "internalType": "address",
          "name": "_address",
          "type": "address"
        }
      ],
      "name": "isTokenHolder",
      "outputs": [
        {
          "internalType": "bool",
          "name": "",
          "type": "bool"
        }
      ],
      "stateMutability": "view",
      "type": "function"
    },
    {
      "inputs": [
        {
          "internalType": "address",
          "name": "to",
          "type": "address"
        },
        {
          "internalType": "uint256",
          "name": "amount",
          "type": "uint256"
        }
      ],
      "name": "mint",
      "outputs": [],
      "stateMutability": "nonpayable",
      "type": "function"
    },
    {
      "inputs": [],
      "name": "minter",
      "outputs": [
        {
          "internalType": "address",
          "name": "",
          "type": "address"
        }
      ],
      "stateMutability": "view",
      "type": "function"
    },
    {
      "inputs": [],
      "name": "name",
      "outputs": [
        {
          "internalType": "string",
          "name": "",
          "type": "string"
        }
      ],
      "stateMutability": "view",
      "type": "function"
    },
    {
      "inputs": [
        {
          "internalType": "address",
          "name": "owner",
          "type": "address"
        }
      ],
      "name": "nonces",
      "outputs": [
        {
          "internalType": "uint256",
          "name": "",
          "type": "uint256"
        }
      ],
      "stateMutability": "view",
      "type": "function"
    },
    {
      "inputs": [
        {
          "internalType": "address",
          "name": "account",
          "type": "address"
        }
      ],
      "name": "numCheckpoints",
      "outputs": [
        {
          "internalType": "uint32",
          "name": "",
          "type": "uint32"
        }
      ],
      "stateMutability": "view",
      "type": "function"
    },
    {
      "inputs": [
        {
          "internalType": "address",
          "name": "owner",
          "type": "address"
        },
        {
          "internalType": "address",
          "name": "spender",
          "type": "address"
        },
        {
          "internalType": "uint256",
          "name": "value",
          "type": "uint256"
        },
        {
          "internalType": "uint256",
          "name": "deadline",
          "type": "uint256"
        },
        {
          "internalType": "uint8",
          "name": "v",
          "type": "uint8"
        },
        {
          "internalType": "bytes32",
          "name": "r",
          "type": "bytes32"
        },
        {
          "internalType": "bytes32",
          "name": "s",
          "type": "bytes32"
        }
      ],
      "name": "permit",
      "outputs": [],
      "stateMutability": "nonpayable",
      "type": "function"
    },
    {
      "inputs": [],
      "name": "symbol",
      "outputs": [
        {
          "internalType": "string",
          "name": "",
          "type": "string"
        }
      ],
      "stateMutability": "view",
      "type": "function"
    },
    {
      "inputs": [
        {
          "internalType": "uint256",
          "name": "",
          "type": "uint256"
        }
      ],
      "name": "tokenHolders",
      "outputs": [
        {
          "internalType": "address",
          "name": "",
          "type": "address"
        }
      ],
      "stateMutability": "view",
      "type": "function"
    },
    {
      "inputs": [],
      "name": "totalSupply",
      "outputs": [
        {
          "internalType": "uint256",
          "name": "",
          "type": "uint256"
        }
      ],
      "stateMutability": "view",
      "type": "function"
    },
    {
      "inputs": [
        {
          "internalType": "address",
          "name": "to",
          "type": "address"
        },
        {
          "internalType": "uint256",
          "name": "amount",
          "type": "uint256"
        }
      ],
      "name": "transfer",
      "outputs": [
        {
          "internalType": "bool",
          "name": "",
          "type": "bool"
        }
      ],
      "stateMutability": "nonpayable",
      "type": "function"
    },
    {
      "inputs": [
        {
          "internalType": "address",
          "name": "sender",
          "type": "address"
        },
        {
          "internalType": "address",
          "name": "recipient",
          "type": "address"
        },
        {
          "internalType": "uint256",
          "name": "amount",
          "type": "uint256"
        }
      ],
      "name": "transferFrom",
      "outputs": [
        {
          "internalType": "bool",
          "name": "",
          "type": "bool"
        }
      ],
      "stateMutability": "nonpayable",
      "type": "function"
    }
  ],
  "bytecode": "0x6101606040523480156200001257600080fd5b506040518060400160405280601581526020017f477265656e2046756e6769626c6520456e65726779000000000000000000000081525080604051806040016040528060018152602001603160f81b8152506040518060400160405280601581526020017f477265656e2046756e6769626c6520456e6572677900000000000000000000008152506040518060400160405280600381526020016247464560e81b8152508160039081620000c79190620002d5565b506004620000d68282620002d5565b50620000e891508390506005620001a9565b61012052620000f9816006620001a9565b61014052815160208084019190912060e052815190820120610100524660a0526200018760e05161010051604080517f8b73c3c69bb8fe3d512ecc4cf759cc79239f7b179b0ffacaa9a75d522b39400f60208201529081019290925260608201524660808201523060a082015260009060c00160405160208183030381529060405280519060200120905090565b60805250503060c05250600c80546001600160a01b0319163317905562000417565b6000602083511015620001c957620001c183620001e2565b9050620001dc565b81620001d68482620002d5565b5060ff90505b92915050565b600080829050601f8151111562000219578260405163305a27a960e01b8152600401620002109190620003a1565b60405180910390fd5b80516200022682620003f2565b179392505050565b634e487b7160e01b600052604160045260246000fd5b600181811c908216806200025957607f821691505b6020821081036200027a57634e487b7160e01b600052602260045260246000fd5b50919050565b601f821115620002d0576000816000526020600020601f850160051c81016020861015620002ab5750805b601f850160051c820191505b81811015620002cc57828155600101620002b7565b5050505b505050565b81516001600160401b03811115620002f157620002f16200022e565b620003098162000302845462000244565b8462000280565b602080601f831160018114620003415760008415620003285750858301515b600019600386901b1c1916600185901b178555620002cc565b600085815260208120601f198616915b82811015620003725788860151825594840194600190910190840162000351565b5085821015620003915787850151600019600388901b60f8161c191681555b5050505050600190811b01905550565b60006020808352835180602085015260005b81811015620003d157858101830151858201604001528201620003b3565b506000604082860101526040601f19601f8301168501019250505092915050565b805160208083015191908110156200027a5760001960209190910360031b1b16919050565b60805160a05160c05160e0516101005161012051610140516124f1620004726000396000610929015260006108fe015260006113920152600061136a015260006112c5015260006112ef0152600061131901526124f16000f3fe608060405234801561001057600080fd5b50600436106102115760003560e01c80637ecebe0011610125578063a457c2d7116100ad578063d505accf1161007c578063d505accf146104b5578063dd62ed3e146104c8578063f1127ed8146104db578063f851a44014610518578063fa1777eb1461052b57600080fd5b8063a457c2d71461046b578063a9059cbb1461047e578063b2e6b91214610491578063c3cda520146104a257600080fd5b806391ddadf4116100f457806391ddadf41461040d578063923108d91461042c57806393e5d42a1461043f57806395d89b41146104505780639ab24eb01461045857600080fd5b80637ecebe00146103b757806384b0196e146103ca578063876b1566146103e55780638e539e8c146103fa57600080fd5b806339509351116101a8578063587cde1e11610177578063587cde1e146103145780635c19a95c1461034057806365731fe9146103535780636fcfff451461036657806370a082311461038e57600080fd5b806339509351146102d35780633a46b1a8146102e657806340c10f19146102f95780634bf5d7e91461030c57600080fd5b806323b872dd116101e457806323b872dd14610294578063313ce567146102a757806333bebb77146102b65780633644e515146102cb57600080fd5b806306fdde03146102165780630754617214610234578063095ea7b31461025f57806318160ddd14610282575b600080fd5b61021e61053e565b60405161022b91906120f2565b60405180910390f35b600d54610247906001600160a01b031681565b6040516001600160a01b03909116815260200161022b565b61027261026d366004612121565b6105d0565b604051901515815260200161022b565b6002545b60405190815260200161022b565b6102726102a236600461214b565b6105ea565b6040516012815260200161022b565b6102c96102c436600461214b565b61060b565b005b610286610670565b6102726102e1366004612121565b61067f565b6102866102f4366004612121565b6106a1565b6102c9610307366004612121565b610726565b61021e6107ac565b610247610322366004612187565b6001600160a01b039081166000908152600960205260409020541690565b6102c961034e366004612187565b610844565b610272610361366004612187565b610851565b610379610374366004612187565b6108b0565b60405163ffffffff909116815260200161022b565b61028661039c366004612187565b6001600160a01b031660009081526020819052604090205490565b6102866103c5366004612187565b6108d2565b6103d26108f0565b60405161022b97969594939291906121a2565b6103ed610979565b60405161022b919061223b565b610286610408366004612288565b6109da565b610415610a41565b60405165ffffffffffff909116815260200161022b565b61024761043a366004612288565b610a4c565b600d546001600160a01b0316610247565b61021e610a76565b610286610466366004612187565b610a85565b610272610479366004612121565b610b07565b61027261048c366004612121565b610b82565b600c546001600160a01b0316610247565b6102c96104b03660046122b2565b610ba1565b6102c96104c336600461230a565b610cd7565b6102866104d6366004612374565b610e3b565b6104ee6104e93660046123a7565b610e66565b60408051825163ffffffff1681526020928301516001600160e01b0316928101929092520161022b565b600c54610247906001600160a01b031681565b6102c9610539366004612187565b610eea565b60606003805461054d906123e7565b80601f0160208091040260200160405190810160405280929190818152602001828054610579906123e7565b80156105c65780601f1061059b576101008083540402835291602001916105c6565b820191906000526020600020905b8154815290600101906020018083116105a957829003601f168201915b5050505050905090565b6000336105de818585610f5c565b60019150505b92915050565b60006105f583611080565b6106008484846110f3565b506001949350505050565b600c546001600160a01b031633146106605760405162461bcd60e51b815260206004820152601360248201527220b236b4b71027b7363c90333ab731ba34b7b760691b60448201526064015b60405180910390fd5b61066b838383611108565b505050565b600061067a6112b8565b905090565b6000336105de8185856106928383610e3b565b61069c9190612431565b610f5c565b60006106ab610a41565b65ffffffffffff1682106106fd5760405162461bcd60e51b815260206004820152601960248201527804552433230566f7465733a20667574757265206c6f6f6b757603c1b6044820152606401610657565b6001600160a01b0383166000908152600a6020526040902061071f90836113e3565b9392505050565b600c546001600160a01b03163314806107495750600d546001600160a01b031633145b6107955760405162461bcd60e51b815260206004820152601a60248201527f41646d696e204d696e746572204f6e6c792066756e6374696f6e0000000000006044820152606401610657565b61079e82611080565b6107a882826114cc565b5050565b6060436107b7610a41565b65ffffffffffff161461080c5760405162461bcd60e51b815260206004820152601d60248201527f4552433230566f7465733a2062726f6b656e20636c6f636b206d6f64650000006044820152606401610657565b5060408051808201909152601d81527f6d6f64653d626c6f636b6e756d6265722666726f6d3d64656661756c74000000602082015290565b61084e33826114d6565b50565b6000805b600e548110156108a757826001600160a01b0316600e828154811061087c5761087c612444565b6000918252602090912001546001600160a01b03160361089f5750600192915050565b600101610855565b50600092915050565b6001600160a01b0381166000908152600a60205260408120546105e49061154f565b6001600160a01b0381166000908152600760205260408120546105e4565b6000606080828080836109247f000000000000000000000000000000000000000000000000000000000000000060056115b8565b61094f7f000000000000000000000000000000000000000000000000000000000000000060066115b8565b60408051600080825260208201909252600f60f81b9b939a50919850469750309650945092509050565b6060600e8054806020026020016040519081016040528092919081815260200182805480156105c657602002820191906000526020600020905b81546001600160a01b031681526001909101906020018083116109b3575050505050905090565b60006109e4610a41565b65ffffffffffff168210610a365760405162461bcd60e51b815260206004820152601960248201527804552433230566f7465733a20667574757265206c6f6f6b757603c1b6044820152606401610657565b6105e4600b836113e3565b600061067a43611663565b600e8181548110610a5c57600080fd5b6000918252602090912001546001600160a01b0316905081565b60606004805461054d906123e7565b6001600160a01b0381166000908152600a60205260408120548015610af4576001600160a01b0383166000908152600a6020526040902080546000198301908110610ad257610ad2612444565b60009182526020909120015464010000000090046001600160e01b0316610af7565b60005b6001600160e01b03169392505050565b60003381610b158286610e3b565b905083811015610b755760405162461bcd60e51b815260206004820152602560248201527f45524332303a2064656372656173656420616c6c6f77616e63652062656c6f77604482015264207a65726f60d81b6064820152608401610657565b6106008286868403610f5c565b6000610b8d83611080565b610b9783836116ca565b5060019392505050565b83421115610bf15760405162461bcd60e51b815260206004820152601d60248201527f4552433230566f7465733a207369676e617475726520657870697265640000006044820152606401610657565b604080517fe48329057bfd03d55e49b547132e39cffd9c1820ad7b9d4c5307691425d15adf60208201526001600160a01b038816918101919091526060810186905260808101859052600090610c6b90610c639060a001604051602081830303815290604052805190602001206116d8565b858585611705565b9050610c768161172d565b8614610cc45760405162461bcd60e51b815260206004820152601960248201527f4552433230566f7465733a20696e76616c6964206e6f6e6365000000000000006044820152606401610657565b610cce81886114d6565b50505050505050565b83421115610d275760405162461bcd60e51b815260206004820152601d60248201527f45524332305065726d69743a206578706972656420646561646c696e650000006044820152606401610657565b60007f6e71edae12b1b97f4d1f60370fef10105fa2faae0126114a169c64845d6126c9888888610d568c61172d565b6040805160208101969096526001600160a01b0394851690860152929091166060840152608083015260a082015260c0810186905260e0016040516020818303038152906040528051906020012090506000610db1826116d8565b90506000610dc182878787611705565b9050896001600160a01b0316816001600160a01b031614610e245760405162461bcd60e51b815260206004820152601e60248201527f45524332305065726d69743a20696e76616c6964207369676e617475726500006044820152606401610657565b610e2f8a8a8a610f5c565b50505050505050505050565b6001600160a01b03918216600090815260016020908152604080832093909416825291909152205490565b60408051808201909152600080825260208201526001600160a01b0383166000908152600a60205260409020805463ffffffff8416908110610eaa57610eaa612444565b60009182526020918290206040805180820190915291015463ffffffff8116825264010000000090046001600160e01b0316918101919091529392505050565b600c546001600160a01b03163314610f3a5760405162461bcd60e51b815260206004820152601360248201527220b236b4b71027b7363c90333ab731ba34b7b760691b6044820152606401610657565b600d80546001600160a01b0319166001600160a01b0392909216919091179055565b6001600160a01b038316610fbe5760405162461bcd60e51b8152602060048201526024808201527f45524332303a20617070726f76652066726f6d20746865207a65726f206164646044820152637265737360e01b6064820152608401610657565b6001600160a01b03821661101f5760405162461bcd60e51b815260206004820152602260248201527f45524332303a20617070726f766520746f20746865207a65726f206164647265604482015261737360f01b6064820152608401610657565b6001600160a01b0383811660008181526001602090815260408083209487168084529482529182902085905590518481527f8c5be1e5ebec7d5bd14f71427d1e84f3dd0314c0f7b2291e5b200ac8c7c3b925910160405180910390a3505050565b61108981610851565b15801561109e57506001600160a01b03811615155b1561084e57600e80546001810182556000919091527fbb7b4a454dc3493923482f07822329ed19e8244eff582cc204f8554c3620c3fd0180546001600160a01b0383166001600160a01b031990911617905550565b600033611101858285611755565b6106008585855b6001600160a01b03831661116c5760405162461bcd60e51b815260206004820152602560248201527f45524332303a207472616e736665722066726f6d20746865207a65726f206164604482015264647265737360d81b6064820152608401610657565b6001600160a01b0382166111ce5760405162461bcd60e51b815260206004820152602360248201527f45524332303a207472616e7366657220746f20746865207a65726f206164647260448201526265737360e81b6064820152608401610657565b6001600160a01b038316600090815260208190526040902054818110156112465760405162461bcd60e51b815260206004820152602660248201527f45524332303a207472616e7366657220616d6f756e7420657863656564732062604482015265616c616e636560d01b6064820152608401610657565b6001600160a01b03848116600081815260208181526040808320878703905593871680835291849020805487019055925185815290927fddf252ad1be2c89b69c2b068fc378daa952ba7f163c4a11628f55a4df523b3ef910160405180910390a36112b28484846117c9565b50505050565b6000306001600160a01b037f00000000000000000000000000000000000000000000000000000000000000001614801561131157507f000000000000000000000000000000000000000000000000000000000000000046145b1561133b57507f000000000000000000000000000000000000000000000000000000000000000090565b61067a604080517f8b73c3c69bb8fe3d512ecc4cf759cc79239f7b179b0ffacaa9a75d522b39400f60208201527f0000000000000000000000000000000000000000000000000000000000000000918101919091527f000000000000000000000000000000000000000000000000000000000000000060608201524660808201523060a082015260009060c00160405160208183030381529060405280519060200120905090565b81546000908181600581111561143d5760006113fe846117d4565b611408908561245a565b600088815260209020909150869082015463ffffffff16111561142d5780915061143b565b611438816001612431565b92505b505b8082101561148a57600061145183836118bc565b600088815260209020909150869082015463ffffffff16111561147657809150611484565b611481816001612431565b92505b5061143d565b80156114b6576000868152602090208101600019015464010000000090046001600160e01b03166114b9565b60005b6001600160e01b03169695505050505050565b6107a882826118d7565b6001600160a01b038281166000818152600960208181526040808420805485845282862054949093528787166001600160a01b03198416811790915590519190951694919391928592917f3134e8a2e6d97e929a7e54011ea5485d7d196dd5f0ba4d4ef95803e8e3fc257f9190a46112b2828483611961565b600063ffffffff8211156115b45760405162461bcd60e51b815260206004820152602660248201527f53616665436173743a2076616c756520646f65736e27742066697420696e203360448201526532206269747360d01b6064820152608401610657565b5090565b606060ff83146115d2576115cb83611a9e565b90506105e4565b8180546115de906123e7565b80601f016020809104026020016040519081016040528092919081815260200182805461160a906123e7565b80156116575780601f1061162c57610100808354040283529160200191611657565b820191906000526020600020905b81548152906001019060200180831161163a57829003601f168201915b505050505090506105e4565b600065ffffffffffff8211156115b45760405162461bcd60e51b815260206004820152602660248201527f53616665436173743a2076616c756520646f65736e27742066697420696e203460448201526538206269747360d01b6064820152608401610657565b6000336105de818585611108565b60006105e46116e56112b8565b8360405161190160f01b8152600281019290925260228201526042902090565b600080600061171687878787611add565b9150915061172381611ba1565b5095945050505050565b6001600160a01b03811660009081526007602052604090208054600181018255905b50919050565b60006117618484610e3b565b905060001981146112b257818110156117bc5760405162461bcd60e51b815260206004820152601d60248201527f45524332303a20696e73756666696369656e7420616c6c6f77616e63650000006044820152606401610657565b6112b28484848403610f5c565b61066b838383611ceb565b6000816000036117e657506000919050565b600060016117f384611d1d565b901c6001901b9050600181848161180c5761180c61246d565b048201901c905060018184816118245761182461246d565b048201901c9050600181848161183c5761183c61246d565b048201901c905060018184816118545761185461246d565b048201901c9050600181848161186c5761186c61246d565b048201901c905060018184816118845761188461246d565b048201901c9050600181848161189c5761189c61246d565b048201901c905061071f818285816118b6576118b661246d565b04611db1565b60006118cb6002848418612483565b61071f90848416612431565b6118e18282611dc7565b6002546001600160e01b0310156119535760405162461bcd60e51b815260206004820152603060248201527f4552433230566f7465733a20746f74616c20737570706c79207269736b73206f60448201526f766572666c6f77696e6720766f74657360801b6064820152608401610657565b6112b2600b611e8e83611e9a565b816001600160a01b0316836001600160a01b0316141580156119835750600081115b1561066b576001600160a01b03831615611a11576001600160a01b0383166000908152600a6020526040812081906119be9061200f85611e9a565b91509150846001600160a01b03167fdec2bacdd2f05b59de34da9b523dff8be42e5e38e818c82fdb0bae774387a7248383604051611a06929190918252602082015260400190565b60405180910390a250505b6001600160a01b0382161561066b576001600160a01b0382166000908152600a602052604081208190611a4790611e8e85611e9a565b91509150836001600160a01b03167fdec2bacdd2f05b59de34da9b523dff8be42e5e38e818c82fdb0bae774387a7248383604051611a8f929190918252602082015260400190565b60405180910390a25050505050565b60606000611aab8361201b565b604080516020808252818301909252919250600091906020820181803683375050509182525060208101929092525090565b6000807f7fffffffffffffffffffffffffffffff5d576e7357a4501ddfe92f46681b20a0831115611b145750600090506003611b98565b6040805160008082526020820180845289905260ff881692820192909252606081018690526080810185905260019060a0016020604051602081039080840390855afa158015611b68573d6000803e3d6000fd5b5050604051601f1901519150506001600160a01b038116611b9157600060019250925050611b98565b9150600090505b94509492505050565b6000816004811115611bb557611bb56124a5565b03611bbd5750565b6001816004811115611bd157611bd16124a5565b03611c1e5760405162461bcd60e51b815260206004820152601860248201527f45434453413a20696e76616c6964207369676e617475726500000000000000006044820152606401610657565b6002816004811115611c3257611c326124a5565b03611c7f5760405162461bcd60e51b815260206004820152601f60248201527f45434453413a20696e76616c6964207369676e6174757265206c656e677468006044820152606401610657565b6003816004811115611c9357611c936124a5565b0361084e5760405162461bcd60e51b815260206004820152602260248201527f45434453413a20696e76616c6964207369676e6174757265202773272076616c604482015261756560f01b6064820152608401610657565b6001600160a01b0383811660009081526009602052604080822054858416835291205461066b92918216911683611961565b600080608083901c15611d3257608092831c92015b604083901c15611d4457604092831c92015b602083901c15611d5657602092831c92015b601083901c15611d6857601092831c92015b600883901c15611d7a57600892831c92015b600483901c15611d8c57600492831c92015b600283901c15611d9e57600292831c92015b600183901c156105e45760010192915050565b6000818310611dc0578161071f565b5090919050565b6001600160a01b038216611e1d5760405162461bcd60e51b815260206004820152601f60248201527f45524332303a206d696e7420746f20746865207a65726f2061646472657373006044820152606401610657565b8060026000828254611e2f9190612431565b90915550506001600160a01b038216600081815260208181526040808320805486019055518481527fddf252ad1be2c89b69c2b068fc378daa952ba7f163c4a11628f55a4df523b3ef910160405180910390a36107a8600083836117c9565b600061071f8284612431565b82546000908190818115611ee75760008781526020902082016000190160408051808201909152905463ffffffff8116825264010000000090046001600160e01b03166020820152611efc565b60408051808201909152600080825260208201525b905080602001516001600160e01b03169350611f1c84868863ffffffff16565b9250600082118015611f465750611f31610a41565b65ffffffffffff16816000015163ffffffff16145b15611f8b57611f5483612043565b60008881526020902083016000190180546001600160e01b03929092166401000000000263ffffffff909216919091179055612005565b866040518060400160405280611faf611fa2610a41565b65ffffffffffff1661154f565b63ffffffff168152602001611fc386612043565b6001600160e01b0390811690915282546001810184556000938452602093849020835194909301519091166401000000000263ffffffff909316929092179101555b5050935093915050565b600061071f828461245a565b600060ff8216601f8111156105e457604051632cd44ac360e21b815260040160405180910390fd5b60006001600160e01b038211156115b45760405162461bcd60e51b815260206004820152602760248201527f53616665436173743a2076616c756520646f65736e27742066697420696e20326044820152663234206269747360c81b6064820152608401610657565b6000815180845260005b818110156120d2576020818501810151868301820152016120b6565b506000602082860101526020601f19601f83011685010191505092915050565b60208152600061071f60208301846120ac565b80356001600160a01b038116811461211c57600080fd5b919050565b6000806040838503121561213457600080fd5b61213d83612105565b946020939093013593505050565b60008060006060848603121561216057600080fd5b61216984612105565b925061217760208501612105565b9150604084013590509250925092565b60006020828403121561219957600080fd5b61071f82612105565b60ff60f81b881681526000602060e060208401526121c360e084018a6120ac565b83810360408501526121d5818a6120ac565b606085018990526001600160a01b038816608086015260a0850187905284810360c08601528551808252602080880193509091019060005b818110156122295783518352928401929184019160010161220d565b50909c9b505050505050505050505050565b6020808252825182820181905260009190848201906040850190845b8181101561227c5783516001600160a01b031683529284019291840191600101612257565b50909695505050505050565b60006020828403121561229a57600080fd5b5035919050565b803560ff8116811461211c57600080fd5b60008060008060008060c087890312156122cb57600080fd5b6122d487612105565b955060208701359450604087013593506122f0606088016122a1565b92506080870135915060a087013590509295509295509295565b600080600080600080600060e0888a03121561232557600080fd5b61232e88612105565b965061233c60208901612105565b95506040880135945060608801359350612358608089016122a1565b925060a0880135915060c0880135905092959891949750929550565b6000806040838503121561238757600080fd5b61239083612105565b915061239e60208401612105565b90509250929050565b600080604083850312156123ba57600080fd5b6123c383612105565b9150602083013563ffffffff811681146123dc57600080fd5b809150509250929050565b600181811c908216806123fb57607f821691505b60208210810361174f57634e487b7160e01b600052602260045260246000fd5b634e487b7160e01b600052601160045260246000fd5b808201808211156105e4576105e461241b565b634e487b7160e01b600052603260045260246000fd5b818103818111156105e4576105e461241b565b634e487b7160e01b600052601260045260246000fd5b6000826124a057634e487b7160e01b600052601260045260246000fd5b500490565b634e487b7160e01b600052602160045260246000fdfea26469706673582212203e2038639bedd33c339b0bf160a37bf7748c8997fa9de0525dcae7f16181ecb464736f6c63430008160033",
  "linkReferences": {},
  "deployedLinkReferences": {}
}