{
  "_format": "hh-sol-artifact-1",
  "contractName": "GFEGovernor",
  "sourceName": "contracts/GFEGovernor.sol",
  "abi": [
    {
      "inputs": [
        {
          "internalType": "contract IVotes",
          "name": "_token",
          "type": "address"
        },
        {
          "internalType": "contract TimelockController",
          "name": "_timelock",
          "type": "address"
        }
      ],
      "stateMutability": "nonpayable",
      "type": "constructor"
    },
    {
      "inputs": [],
      "name": "Empty",
      "type": "error"
    },
    {
      "inputs": [],
      "name": "InvalidShortString",
      "type": "error"
    },
    {
      "inputs": [
        {
          "internalType": "string",
          "name": "str",
          "type": "string"
        }
      ],
      "name": "StringTooLong",
      "type": "error"
    },
    {
      "anonymous": false,
      "inputs": [],
      "name": "EIP712DomainChanged",
      "type": "event"
    },
    {
      "anonymous": false,
      "inputs": [
        {
          "indexed": false,
          "internalType": "uint256",
          "name": "proposalId",
          "type": "uint256"
        }
      ],
      "name": "ProposalCanceled",
      "type": "event"
    },
    {
      "anonymous": false,
      "inputs": [
        {
          "indexed": false,
          "internalType": "uint256",
          "name": "proposalId",
          "type": "uint256"
        },
        {
          "indexed": false,
          "internalType": "address",
          "name": "proposer",
          "type": "address"
        },
        {
          "indexed": false,
          "internalType": "address[]",
          "name": "targets",
          "type": "address[]"
        },
        {
          "indexed": false,
          "internalType": "uint256[]",
          "name": "values",
          "type": "uint256[]"
        },
        {
          "indexed": false,
          "internalType": "string[]",
          "name": "signatures",
          "type": "string[]"
        },
        {
          "indexed": false,
          "internalType": "bytes[]",
          "name": "calldatas",
          "type": "bytes[]"
        },
        {
          "indexed": false,
          "internalType": "uint256",
          "name": "voteStart",
          "type": "uint256"
        },
        {
          "indexed": false,
          "internalType": "uint256",
          "name": "voteEnd",
          "type": "uint256"
        },
        {
          "indexed": false,
          "internalType": "string",
          "name": "description",
          "type": "string"
        }
      ],
      "name": "ProposalCreated",
      "type": "event"
    },
    {
      "anonymous": false,
      "inputs": [
        {
          "indexed": false,
          "internalType": "uint256",
          "name": "proposalId",
          "type": "uint256"
        }
      ],
      "name": "ProposalExecuted",
      "type": "event"
    },
    {
      "anonymous": false,
      "inputs": [
        {
          "indexed": false,
          "internalType": "uint256",
          "name": "proposalId",
          "type": "uint256"
        },
        {
          "indexed": false,
          "internalType": "uint256",
          "name": "eta",
          "type": "uint256"
        }
      ],
      "name": "ProposalQueued",
      "type": "event"
    },
    {
      "anonymous": false,
      "inputs": [
        {
          "indexed": false,
          "internalType": "uint256",
          "name": "oldProposalThreshold",
          "type": "uint256"
        },
        {
          "indexed": false,
          "internalType": "uint256",
          "name": "newProposalThreshold",
          "type": "uint256"
        }
      ],
      "name": "ProposalThresholdSet",
      "type": "event"
    },
    {
      "anonymous": false,
      "inputs": [
        {
          "indexed": false,
          "internalType": "uint256",
          "name": "oldQuorumNumerator",
          "type": "uint256"
        },
        {
          "indexed": false,
          "internalType": "uint256",
          "name": "newQuorumNumerator",
          "type": "uint256"
        }
      ],
      "name": "QuorumNumeratorUpdated",
      "type": "event"
    },
    {
      "anonymous": false,
      "inputs": [
        {
          "indexed": false,
          "internalType": "address",
          "name": "oldTimelock",
          "type": "address"
        },
        {
          "indexed": false,
          "internalType": "address",
          "name": "newTimelock",
          "type": "address"
        }
      ],
      "name": "TimelockChange",
      "type": "event"
    },
    {
      "anonymous": false,
      "inputs": [
        {
          "indexed": true,
          "internalType": "address",
          "name": "voter",
          "type": "address"
        },
        {
          "indexed": false,
          "internalType": "uint256",
          "name": "proposalId",
          "type": "uint256"
        },
        {
          "indexed": false,
          "internalType": "uint8",
          "name": "support",
          "type": "uint8"
        },
        {
          "indexed": false,
          "internalType": "uint256",
          "name": "weight",
          "type": "uint256"
        },
        {
          "indexed": false,
          "internalType": "string",
          "name": "reason",
          "type": "string"
        }
      ],
      "name": "VoteCast",
      "type": "event"
    },
    {
      "anonymous": false,
      "inputs": [
        {
          "indexed": true,
          "internalType": "address",
          "name": "voter",
          "type": "address"
        },
        {
          "indexed": false,
          "internalType": "uint256",
          "name": "proposalId",
          "type": "uint256"
        },
        {
          "indexed": false,
          "internalType": "uint8",
          "name": "support",
          "type": "uint8"
        },
        {
          "indexed": false,
          "internalType": "uint256",
          "name": "weight",
          "type": "uint256"
        },
        {
          "indexed": false,
          "internalType": "string",
          "name": "reason",
          "type": "string"
        },
        {
          "indexed": false,
          "internalType": "bytes",
          "name": "params",
          "type": "bytes"
        }
      ],
      "name": "VoteCastWithParams",
      "type": "event"
    },
    {
      "anonymous": false,
      "inputs": [
        {
          "indexed": false,
          "internalType": "uint256",
          "name": "oldVotingDelay",
          "type": "uint256"
        },
        {
          "indexed": false,
          "internalType": "uint256",
          "name": "newVotingDelay",
          "type": "uint256"
        }
      ],
      "name": "VotingDelaySet",
      "type": "event"
    },
    {
      "anonymous": false,
      "inputs": [
        {
          "indexed": false,
          "internalType": "uint256",
          "name": "oldVotingPeriod",
          "type": "uint256"
        },
        {
          "indexed": false,
          "internalType": "uint256",
          "name": "newVotingPeriod",
          "type": "uint256"
        }
      ],
      "name": "VotingPeriodSet",
      "type": "event"
    },
    {
      "inputs": [],
      "name": "BALLOT_TYPEHASH",
      "outputs": [
        {
          "internalType": "bytes32",
          "name": "",
          "type": "bytes32"
        }
      ],
      "stateMutability": "view",
      "type": "function"
    },
    {
      "inputs": [],
      "name": "CLOCK_MODE",
      "outputs": [
        {
          "internalType": "string",
          "name": "",
          "type": "string"
        }
      ],
      "stateMutability": "view",
      "type": "function"
    },
    {
      "inputs": [],
      "name": "COUNTING_MODE",
      "outputs": [
        {
          "internalType": "string",
          "name": "",
          "type": "string"
        }
      ],
      "stateMutability": "pure",
      "type": "function"
    },
    {
      "inputs": [],
      "name": "EXTENDED_BALLOT_TYPEHASH",
      "outputs": [
        {
          "internalType": "bytes32",
          "name": "",
          "type": "bytes32"
        }
      ],
      "stateMutability": "view",
      "type": "function"
    },
    {
      "inputs": [
        {
          "internalType": "address[]",
          "name": "targets",
          "type": "address[]"
        },
        {
          "internalType": "uint256[]",
          "name": "values",
          "type": "uint256[]"
        },
        {
          "internalType": "bytes[]",
          "name": "calldatas",
          "type": "bytes[]"
        },
        {
          "internalType": "bytes32",
          "name": "descriptionHash",
          "type": "bytes32"
        }
      ],
      "name": "cancel",
      "outputs": [
        {
          "internalType": "uint256",
          "name": "",
          "type": "uint256"
        }
      ],
      "stateMutability": "nonpayable",
      "type": "function"
    },
    {
      "inputs": [
        {
          "internalType": "uint256",
          "name": "proposalId",
          "type": "uint256"
        },
        {
          "internalType": "uint8",
          "name": "support",
          "type": "uint8"
        }
      ],
      "name": "castVote",
      "outputs": [
        {
          "internalType": "uint256",
          "name": "",
          "type": "uint256"
        }
      ],
      "stateMutability": "nonpayable",
      "type": "function"
    },
    {
      "inputs": [
        {
          "internalType": "uint256",
          "name": "proposalId",
          "type": "uint256"
        },
        {
          "internalType": "uint8",
          "name": "support",
          "type": "uint8"
        },
        {
          "internalType": "uint8",
          "name": "v",
          "type": "uint8"
        },
        {
          "internalType": "bytes32",
          "name": "r",
          "type": "bytes32"
        },
        {
          "internalType": "bytes32",
          "name": "s",
          "type": "bytes32"
        }
      ],
      "name": "castVoteBySig",
      "outputs": [
        {
          "internalType": "uint256",
          "name": "",
          "type": "uint256"
        }
      ],
      "stateMutability": "nonpayable",
      "type": "function"
    },
    {
      "inputs": [
        {
          "internalType": "uint256",
          "name": "proposalId",
          "type": "uint256"
        },
        {
          "internalType": "uint8",
          "name": "support",
          "type": "uint8"
        },
        {
          "internalType": "string",
          "name": "reason",
          "type": "string"
        }
      ],
      "name": "castVoteWithReason",
      "outputs": [
        {
          "internalType": "uint256",
          "name": "",
          "type": "uint256"
        }
      ],
      "stateMutability": "nonpayable",
      "type": "function"
    },
    {
      "inputs": [
        {
          "internalType": "uint256",
          "name": "proposalId",
          "type": "uint256"
        },
        {
          "internalType": "uint8",
          "name": "support",
          "type": "uint8"
        },
        {
          "internalType": "string",
          "name": "reason",
          "type": "string"
        },
        {
          "internalType": "bytes",
          "name": "params",
          "type": "bytes"
        }
      ],
      "name": "castVoteWithReasonAndParams",
      "outputs": [
        {
          "internalType": "uint256",
          "name": "",
          "type": "uint256"
        }
      ],
      "stateMutability": "nonpayable",
      "type": "function"
    },
    {
      "inputs": [
        {
          "internalType": "uint256",
          "name": "proposalId",
          "type": "uint256"
        },
        {
          "internalType": "uint8",
          "name": "support",
          "type": "uint8"
        },
        {
          "internalType": "string",
          "name": "reason",
          "type": "string"
        },
        {
          "internalType": "bytes",
          "name": "params",
          "type": "bytes"
        },
        {
          "internalType": "uint8",
          "name": "v",
          "type": "uint8"
        },
        {
          "internalType": "bytes32",
          "name": "r",
          "type": "bytes32"
        },
        {
          "internalType": "bytes32",
          "name": "s",
          "type": "bytes32"
        }
      ],
      "name": "castVoteWithReasonAndParamsBySig",
      "outputs": [
        {
          "internalType": "uint256",
          "name": "",
          "type": "uint256"
        }
      ],
      "stateMutability": "nonpayable",
      "type": "function"
    },
    {
      "inputs": [],
      "name": "clock",
      "outputs": [
        {
          "internalType": "uint48",
          "name": "",
          "type": "uint48"
        }
      ],
      "stateMutability": "view",
      "type": "function"
    },
    {
      "inputs": [],
      "name": "eip712Domain",
      "outputs": [
        {
          "internalType": "bytes1",
          "name": "fields",
          "type": "bytes1"
        },
        {
          "internalType": "string",
          "name": "name",
          "type": "string"
        },
        {
          "internalType": "string",
          "name": "version",
          "type": "string"
        },
        {
          "internalType": "uint256",
          "name": "chainId",
          "type": "uint256"
        },
        {
          "internalType": "address",
          "name": "verifyingContract",
          "type": "address"
        },
        {
          "internalType": "bytes32",
          "name": "salt",
          "type": "bytes32"
        },
        {
          "internalType": "uint256[]",
          "name": "extensions",
          "type": "uint256[]"
        }
      ],
      "stateMutability": "view",
      "type": "function"
    },
    {
      "inputs": [
        {
          "internalType": "address[]",
          "name": "targets",
          "type": "address[]"
        },
        {
          "internalType": "uint256[]",
          "name": "values",
          "type": "uint256[]"
        },
        {
          "internalType": "bytes[]",
          "name": "calldatas",
          "type": "bytes[]"
        },
        {
          "internalType": "bytes32",
          "name": "descriptionHash",
          "type": "bytes32"
        }
      ],
      "name": "execute",
      "outputs": [
        {
          "internalType": "uint256",
          "name": "",
          "type": "uint256"
        }
      ],
      "stateMutability": "payable",
      "type": "function"
    },
    {
      "inputs": [
        {
          "internalType": "address",
          "name": "account",
          "type": "address"
        },
        {
          "internalType": "uint256",
          "name": "timepoint",
          "type": "uint256"
        }
      ],
      "name": "getVotes",
      "outputs": [
        {
          "internalType": "uint256",
          "name": "",
          "type": "uint256"
        }
      ],
      "stateMutability": "view",
      "type": "function"
    },
    {
      "inputs": [
        {
          "internalType": "address",
          "name": "account",
          "type": "address"
        },
        {
          "internalType": "uint256",
          "name": "timepoint",
          "type": "uint256"
        },
        {
          "internalType": "bytes",
          "name": "params",
          "type": "bytes"
        }
      ],
      "name": "getVotesWithParams",
      "outputs": [
        {
          "internalType": "uint256",
          "name": "",
          "type": "uint256"
        }
      ],
      "stateMutability": "view",
      "type": "function"
    },
    {
      "inputs": [
        {
          "internalType": "uint256",
          "name": "proposalId",
          "type": "uint256"
        },
        {
          "internalType": "address",
          "name": "account",
          "type": "address"
        }
      ],
      "name": "hasVoted",
      "outputs": [
        {
          "internalType": "bool",
          "name": "",
          "type": "bool"
        }
      ],
      "stateMutability": "view",
      "type": "function"
    },
    {
      "inputs": [
        {
          "internalType": "address[]",
          "name": "targets",
          "type": "address[]"
        },
        {
          "internalType": "uint256[]",
          "name": "values",
          "type": "uint256[]"
        },
        {
          "internalType": "bytes[]",
          "name": "calldatas",
          "type": "bytes[]"
        },
        {
          "internalType": "bytes32",
          "name": "descriptionHash",
          "type": "bytes32"
        }
      ],
      "name": "hashProposal",
      "outputs": [
        {
          "internalType": "uint256",
          "name": "",
          "type": "uint256"
        }
      ],
      "stateMutability": "pure",
      "type": "function"
    },
    {
      "inputs": [],
      "name": "name",
      "outputs": [
        {
          "internalType": "string",
          "name": "",
          "type": "string"
        }
      ],
      "stateMutability": "view",
      "type": "function"
    },
    {
      "inputs": [
        {
          "internalType": "address",
          "name": "",
          "type": "address"
        },
        {
          "internalType": "address",
          "name": "",
          "type": "address"
        },
        {
          "internalType": "uint256[]",
          "name": "",
          "type": "uint256[]"
        },
        {
          "internalType": "uint256[]",
          "name": "",
          "type": "uint256[]"
        },
        {
          "internalType": "bytes",
          "name": "",
          "type": "bytes"
        }
      ],
      "name": "onERC1155BatchReceived",
      "outputs": [
        {
          "internalType": "bytes4",
          "name": "",
          "type": "bytes4"
        }
      ],
      "stateMutability": "nonpayable",
      "type": "function"
    },
    {
      "inputs": [
        {
          "internalType": "address",
          "name": "",
          "type": "address"
        },
        {
          "internalType": "address",
          "name": "",
          "type": "address"
        },
        {
          "internalType": "uint256",
          "name": "",
          "type": "uint256"
        },
        {
          "internalType": "uint256",
          "name": "",
          "type": "uint256"
        },
        {
          "internalType": "bytes",
          "name": "",
          "type": "bytes"
        }
      ],
      "name": "onERC1155Received",
      "outputs": [
        {
          "internalType": "bytes4",
          "name": "",
          "type": "bytes4"
        }
      ],
      "stateMutability": "nonpayable",
      "type": "function"
    },
    {
      "inputs": [
        {
          "internalType": "address",
          "name": "",
          "type": "address"
        },
        {
          "internalType": "address",
          "name": "",
          "type": "address"
        },
        {
          "internalType": "uint256",
          "name": "",
          "type": "uint256"
        },
        {
          "internalType": "bytes",
          "name": "",
          "type": "bytes"
        }
      ],
      "name": "onERC721Received",
      "outputs": [
        {
          "internalType": "bytes4",
          "name": "",
          "type": "bytes4"
        }
      ],
      "stateMutability": "nonpayable",
      "type": "function"
    },
    {
      "inputs": [
        {
          "internalType": "uint256",
          "name": "proposalId",
          "type": "uint256"
        }
      ],
      "name": "proposalDeadline",
      "outputs": [
        {
          "internalType": "uint256",
          "name": "",
          "type": "uint256"
        }
      ],
      "stateMutability": "view",
      "type": "function"
    },
    {
      "inputs": [
        {
          "internalType": "uint256",
          "name": "proposalId",
          "type": "uint256"
        }
      ],
      "name": "proposalEta",
      "outputs": [
        {
          "internalType": "uint256",
          "name": "",
          "type": "uint256"
        }
      ],
      "stateMutability": "view",
      "type": "function"
    },
    {
      "inputs": [
        {
          "internalType": "uint256",
          "name": "proposalId",
          "type": "uint256"
        }
      ],
      "name": "proposalProposer",
      "outputs": [
        {
          "internalType": "address",
          "name": "",
          "type": "address"
        }
      ],
      "stateMutability": "view",
      "type": "function"
    },
    {
      "inputs": [
        {
          "internalType": "uint256",
          "name": "proposalId",
          "type": "uint256"
        }
      ],
      "name": "proposalSnapshot",
      "outputs": [
        {
          "internalType": "uint256",
          "name": "",
          "type": "uint256"
        }
      ],
      "stateMutability": "view",
      "type": "function"
    },
    {
      "inputs": [],
      "name": "proposalThreshold",
      "outputs": [
        {
          "internalType": "uint256",
          "name": "",
          "type": "uint256"
        }
      ],
      "stateMutability": "view",
      "type": "function"
    },
    {
      "inputs": [
        {
          "internalType": "uint256",
          "name": "proposalId",
          "type": "uint256"
        }
      ],
      "name": "proposalVotes",
      "outputs": [
        {
          "internalType": "uint256",
          "name": "againstVotes",
          "type": "uint256"
        },
        {
          "internalType": "uint256",
          "name": "forVotes",
          "type": "uint256"
        },
        {
          "internalType": "uint256",
          "name": "abstainVotes",
          "type": "uint256"
        }
      ],
      "stateMutability": "view",
      "type": "function"
    },
    {
      "inputs": [
        {
          "internalType": "address[]",
          "name": "targets",
          "type": "address[]"
        },
        {
          "internalType": "uint256[]",
          "name": "values",
          "type": "uint256[]"
        },
        {
          "internalType": "bytes[]",
          "name": "calldatas",
          "type": "bytes[]"
        },
        {
          "internalType": "string",
          "name": "description",
          "type": "string"
        }
      ],
      "name": "propose",
      "outputs": [
        {
          "internalType": "uint256",
          "name": "",
          "type": "uint256"
        }
      ],
      "stateMutability": "nonpayable",
      "type": "function"
    },
    {
      "inputs": [
        {
          "internalType": "address[]",
          "name": "targets",
          "type": "address[]"
        },
        {
          "internalType": "uint256[]",
          "name": "values",
          "type": "uint256[]"
        },
        {
          "internalType": "bytes[]",
          "name": "calldatas",
          "type": "bytes[]"
        },
        {
          "internalType": "bytes32",
          "name": "descriptionHash",
          "type": "bytes32"
        }
      ],
      "name": "queue",
      "outputs": [
        {
          "internalType": "uint256",
          "name": "",
          "type": "uint256"
        }
      ],
      "stateMutability": "nonpayable",
      "type": "function"
    },
    {
      "inputs": [
        {
          "internalType": "uint256",
          "name": "blockNumber",
          "type": "uint256"
        }
      ],
      "name": "quorum",
      "outputs": [
        {
          "internalType": "uint256",
          "name": "",
          "type": "uint256"
        }
      ],
      "stateMutability": "view",
      "type": "function"
    },
    {
      "inputs": [],
      "name": "quorumDenominator",
      "outputs": [
        {
          "internalType": "uint256",
          "name": "",
          "type": "uint256"
        }
      ],
      "stateMutability": "view",
      "type": "function"
    },
    {
      "inputs": [
        {
          "internalType": "uint256",
          "name": "timepoint",
          "type": "uint256"
        }
      ],
      "name": "quorumNumerator",
      "outputs": [
        {
          "internalType": "uint256",
          "name": "",
          "type": "uint256"
        }
      ],
      "stateMutability": "view",
      "type": "function"
    },
    {
      "inputs": [],
      "name": "quorumNumerator",
      "outputs": [
        {
          "internalType": "uint256",
          "name": "",
          "type": "uint256"
        }
      ],
      "stateMutability": "view",
      "type": "function"
    },
    {
      "inputs": [
        {
          "internalType": "address",
          "name": "target",
          "type": "address"
        },
        {
          "internalType": "uint256",
          "name": "value",
          "type": "uint256"
        },
        {
          "internalType": "bytes",
          "name": "data",
          "type": "bytes"
        }
      ],
      "name": "relay",
      "outputs": [],
      "stateMutability": "payable",
      "type": "function"
    },
    {
      "inputs": [
        {
          "internalType": "uint256",
          "name": "newProposalThreshold",
          "type": "uint256"
        }
      ],
      "name": "setProposalThreshold",
      "outputs": [],
      "stateMutability": "nonpayable",
      "type": "function"
    },
    {
      "inputs": [
        {
          "internalType": "uint256",
          "name": "newVotingDelay",
          "type": "uint256"
        }
      ],
      "name": "setVotingDelay",
      "outputs": [],
      "stateMutability": "nonpayable",
      "type": "function"
    },
    {
      "inputs": [
        {
          "internalType": "uint256",
          "name": "newVotingPeriod",
          "type": "uint256"
        }
      ],
      "name": "setVotingPeriod",
      "outputs": [],
      "stateMutability": "nonpayable",
      "type": "function"
    },
    {
      "inputs": [
        {
          "internalType": "uint256",
          "name": "proposalId",
          "type": "uint256"
        }
      ],
      "name": "state",
      "outputs": [
        {
          "internalType": "enum IGovernor.ProposalState",
          "name": "",
          "type": "uint8"
        }
      ],
      "stateMutability": "view",
      "type": "function"
    },
    {
      "inputs": [
        {
          "internalType": "bytes4",
          "name": "interfaceId",
          "type": "bytes4"
        }
      ],
      "name": "supportsInterface",
      "outputs": [
        {
          "internalType": "bool",
          "name": "",
          "type": "bool"
        }
      ],
      "stateMutability": "view",
      "type": "function"
    },
    {
      "inputs": [],
      "name": "timelock",
      "outputs": [
        {
          "internalType": "address",
          "name": "",
          "type": "address"
        }
      ],
      "stateMutability": "view",
      "type": "function"
    },
    {
      "inputs": [],
      "name": "token",
      "outputs": [
        {
          "internalType": "contract IERC5805",
          "name": "",
          "type": "address"
        }
      ],
      "stateMutability": "view",
      "type": "function"
    },
    {
      "inputs": [
        {
          "internalType": "uint256",
          "name": "newQuorumNumerator",
          "type": "uint256"
        }
      ],
      "name": "updateQuorumNumerator",
      "outputs": [],
      "stateMutability": "nonpayable",
      "type": "function"
    },
    {
      "inputs": [
        {
          "internalType": "contract TimelockController",
          "name": "newTimelock",
          "type": "address"
        }
      ],
      "name": "updateTimelock",
      "outputs": [],
      "stateMutability": "nonpayable",
      "type": "function"
    },
    {
      "inputs": [],
      "name": "version",
      "outputs": [
        {
          "internalType": "string",
          "name": "",
          "type": "string"
        }
      ],
      "stateMutability": "view",
      "type": "function"
    },
    {
      "inputs": [],
      "name": "votingDelay",
      "outputs": [
        {
          "internalType": "uint256",
          "name": "",
          "type": "uint256"
        }
      ],
      "stateMutability": "view",
      "type": "function"
    },
    {
      "inputs": [],
      "name": "votingPeriod",
      "outputs": [
        {
          "internalType": "uint256",
          "name": "",
          "type": "uint256"
        }
      ],
      "stateMutability": "view",
      "type": "function"
    },
    {
      "stateMutability": "payable",
      "type": "receive"
    }
  ],
  "bytecode": "0x6101806040523480156200001257600080fd5b50604051620053793803806200537983398101604081905262000035916200094e565b80600483611c2061c4e060006040518060400160405280600b81526020016a23a322a3b7bb32b93737b960a91b81525080620000766200018d60201b60201c565b62000083826000620001a8565b6101205262000094816001620001a8565b61014052815160208084019190912060e052815190820120610100524660a0526200012260e05161010051604080517f8b73c3c69bb8fe3d512ecc4cf759cc79239f7b179b0ffacaa9a75d522b39400f60208201529081019290925260608201524660808201523060a082015260009060c00160405160208183030381529060405280519060200120905090565b60805250503060c052600262000139828262000a34565b5062000147905083620001e1565b620001528262000222565b6200015d81620002c9565b5050506001600160a01b03166101605262000178816200030a565b50620001848162000489565b50505062000bc2565b6040805180820190915260018152603160f81b602082015290565b6000602083511015620001c857620001c083620004f2565b9050620001db565b81620001d5848262000a34565b5060ff90505b92915050565b60065460408051918252602082018390527fc565b045403dc03c2eea82b81a0465edad9e2e7fc4d97e11421c209da93d7a93910160405180910390a1600655565b60008111620002885760405162461bcd60e51b815260206004820152602760248201527f476f7665726e6f7253657474696e67733a20766f74696e6720706572696f6420604482015266746f6f206c6f7760c81b60648201526084015b60405180910390fd5b60075460408051918252602082018390527f7e3f7f0708a84de9203036abaa450dccc85ad5ff52f78c170f3edb55cf5e8828910160405180910390a1600755565b60085460408051918252602082018390527fccb45da8d5717e6c4544694297c4ba5cf151d455c9bb0ed4fc7a38411bc05461910160405180910390a1600855565b60648111156200038f5760405162461bcd60e51b815260206004820152604360248201527f476f7665726e6f72566f74657351756f72756d4672616374696f6e3a2071756f60448201527f72756d4e756d657261746f72206f7665722071756f72756d44656e6f6d696e616064820152623a37b960e91b608482015260a4016200027f565b60006200039b62000535565b90508015801590620003ad5750600b54155b1562000415576040805180820190915260008152600b9060208101620003d38462000564565b6001600160e01b0390811690915282546001810184556000938452602093849020835194909301519091166401000000000263ffffffff909316929092179101555b6200044a6200043562000427620005d3565b65ffffffffffff166200064a565b620004408462000564565b600b9190620006b1565b505060408051828152602081018490527f0553476bf02ef2726e8ce5ced78d63e26e602e4a2257b1f559418e24b4633997910160405180910390a15050565b600c54604080516001600160a01b03928316815291831660208301527f08f74ea46ef7894f65eabfb5e6e695de773a000b47c529ab559178069b226401910160405180910390a1600c80546001600160a01b0319166001600160a01b0392909216919091179055565b600080829050601f8151111562000520578260405163305a27a960e01b81526004016200027f919062000b00565b80516200052d8262000b51565b179392505050565b600b54600090156200055b576200054d600b620006ce565b6001600160e01b0316905090565b600a545b905090565b60006001600160e01b03821115620005cf5760405162461bcd60e51b815260206004820152602760248201527f53616665436173743a2076616c756520646f65736e27742066697420696e20326044820152663234206269747360c81b60648201526084016200027f565b5090565b6000610160516001600160a01b03166391ddadf46040518163ffffffff1660e01b8152600401602060405180830381865afa92505050801562000635575060408051601f3d908101601f19168201909252620006329181019062000b76565b60015b62000645576200055f436200071c565b919050565b600063ffffffff821115620005cf5760405162461bcd60e51b815260206004820152602660248201527f53616665436173743a2076616c756520646f65736e27742066697420696e203360448201526532206269747360d01b60648201526084016200027f565b600080620006c185858562000785565b915091505b935093915050565b805460009080156200071257620006fa83620006ec60018462000ba0565b600091825260209091200190565b5464010000000090046001600160e01b031662000715565b60005b9392505050565b600065ffffffffffff821115620005cf5760405162461bcd60e51b815260206004820152602660248201527f53616665436173743a2076616c756520646f65736e27742066697420696e203460448201526538206269747360d01b60648201526084016200027f565b825460009081908015620008da576000620007a787620006ec60018562000ba0565b60408051808201909152905463ffffffff8082168084526401000000009092046001600160e01b0316602084015291925090871610156200082b5760405162461bcd60e51b815260206004820152601b60248201527f436865636b706f696e743a2064656372656173696e67206b657973000000000060448201526064016200027f565b805163ffffffff8088169116036200087957846200085088620006ec60018662000ba0565b80546001600160e01b03929092166401000000000263ffffffff909216919091179055620008c9565b6040805180820190915263ffffffff80881682526001600160e01b0380881660208085019182528b54600181018d5560008d81529190912094519151909216640100000000029216919091179101555b602001519250839150620006c69050565b50506040805180820190915263ffffffff80851682526001600160e01b0380851660208085019182528854600181018a5560008a815291822095519251909316640100000000029190931617920191909155905081620006c6565b6001600160a01b03811681146200094b57600080fd5b50565b600080604083850312156200096257600080fd5b82516200096f8162000935565b6020840151909250620009828162000935565b809150509250929050565b634e487b7160e01b600052604160045260246000fd5b600181811c90821680620009b857607f821691505b602082108103620009d957634e487b7160e01b600052602260045260246000fd5b50919050565b601f82111562000a2f576000816000526020600020601f850160051c8101602086101562000a0a5750805b601f850160051c820191505b8181101562000a2b5782815560010162000a16565b5050505b505050565b81516001600160401b0381111562000a505762000a506200098d565b62000a688162000a618454620009a3565b84620009df565b602080601f83116001811462000aa0576000841562000a875750858301515b600019600386901b1c1916600185901b17855562000a2b565b600085815260208120601f198616915b8281101562000ad15788860151825594840194600190910190840162000ab0565b508582101562000af05787850151600019600388901b60f8161c191681555b5050505050600190811b01905550565b60006020808352835180602085015260005b8181101562000b305785810183015185820160400152820162000b12565b506000604082860101526040601f19601f8301168501019250505092915050565b80516020808301519190811015620009d95760001960209190910360031b1b16919050565b60006020828403121562000b8957600080fd5b815165ffffffffffff811681146200071557600080fd5b81810381811115620001db57634e487b7160e01b600052601160045260246000fd5b60805160a05160c05160e0516101005161012051610140516101605161473562000c44600039600081816109e1015281816110e0015281816117f60152818161266c0152612890015260006117a20152600061177801526000612a8d01526000612a65015260006129c0015260006129ea01526000612a1401526147356000f3fe6080604052600436106102815760003560e01c80637b3c71d31161014f578063c01f9e37116100c1578063ea0217cf1161007a578063ea0217cf14610923578063eb9019d414610943578063ece40cc114610963578063f23a6e6114610983578063f8ce560a146109af578063fc0c546a146109cf57600080fd5b8063c01f9e371461081f578063c28bc2fa14610858578063c59057e41461086b578063d33219b41461088b578063dd4e2ba5146108a9578063deaaa7cc146108ef57600080fd5b80639a802a6d116101135780639a802a6d14610769578063a7713a7014610789578063a890c9101461079e578063ab58fb8e146107be578063b58131b0146107de578063bc197c81146107f357600080fd5b80637b3c71d3146106c15780637d5e81e2146106e157806384b0196e1461070157806391ddadf41461072957806397c3d3341461075557600080fd5b80633932abb1116101f3578063544ffc9c116101ac578063544ffc9c146105c257806354fd4d501461061757806356781388146106415780635f398a141461066157806360c4247f1461068157806370b0f660146106a157600080fd5b80633932abb1146104e15780633bccf4fd146104f65780633e4f49e6146105165780634385963214610543578063452115d61461058d5780634bf5d7e9146105ad57600080fd5b8063143489d011610245578063143489d0146103ab578063150b7a0214610400578063160cbed7146104445780632656227d146104645780632d63f693146104775780632fe3e261146104ad57600080fd5b806301ffc9a7146102f157806302a251a314610326578063034201811461034957806306f3f9e61461036957806306fdde031461038957600080fd5b366102ec573061028f610a03565b6001600160a01b0316146102ea5760405162461bcd60e51b815260206004820152601f60248201527f476f7665726e6f723a206d7573742073656e6420746f206578656375746f720060448201526064015b60405180910390fd5b005b600080fd5b3480156102fd57600080fd5b5061031161030c3660046137b1565b610a1c565b60405190151581526020015b60405180910390f35b34801561033257600080fd5b5061033b610a2d565b60405190815260200161031d565b34801561035557600080fd5b5061033b6103643660046138ff565b610a38565b34801561037557600080fd5b506102ea6103843660046139a5565b610b30565b34801561039557600080fd5b5061039e610bba565b60405161031d9190613a0e565b3480156103b757600080fd5b506103e86103c63660046139a5565b600090815260036020526040902054600160401b90046001600160a01b031690565b6040516001600160a01b03909116815260200161031d565b34801561040c57600080fd5b5061042b61041b366004613a36565b630a85bd0160e11b949350505050565b6040516001600160e01b0319909116815260200161031d565b34801561045057600080fd5b5061033b61045f366004613c15565b610c4c565b61033b610472366004613c15565b610e4d565b34801561048357600080fd5b5061033b6104923660046139a5565b6000908152600360205260409020546001600160401b031690565b3480156104b957600080fd5b5061033b7fb3b3f3b703cd84ce352197dcff232b1b5d3cfb2025ce47cf04742d0651f1af8881565b3480156104ed57600080fd5b5061033b610f3f565b34801561050257600080fd5b5061033b610511366004613ca4565b610f4a565b34801561052257600080fd5b506105366105313660046139a5565b610fc0565b60405161031d9190613d08565b34801561054f57600080fd5b5061031161055e366004613d30565b60008281526009602090815260408083206001600160a01b038516845260030190915290205460ff1692915050565b34801561059957600080fd5b5061033b6105a8366004613c15565b610fcb565b3480156105b957600080fd5b5061039e6110dc565b3480156105ce57600080fd5b506105fc6105dd3660046139a5565b6000908152600960205260409020805460018201546002909201549092565b6040805193845260208401929092529082015260600161031d565b34801561062357600080fd5b506040805180820190915260018152603160f81b602082015261039e565b34801561064d57600080fd5b5061033b61065c366004613d60565b61119e565b34801561066d57600080fd5b5061033b61067c366004613d8c565b6111c7565b34801561068d57600080fd5b5061033b61069c3660046139a5565b611211565b3480156106ad57600080fd5b506102ea6106bc3660046139a5565b6112c2565b3480156106cd57600080fd5b5061033b6106dc366004613e0f565b611349565b3480156106ed57600080fd5b5061033b6106fc366004613e68565b611391565b34801561070d57600080fd5b5061071661176a565b60405161031d9796959493929190613f58565b34801561073557600080fd5b5061073e6117f2565b60405165ffffffffffff909116815260200161031d565b34801561076157600080fd5b50606461033b565b34801561077557600080fd5b5061033b610784366004613fba565b61187b565b34801561079557600080fd5b5061033b611892565b3480156107aa57600080fd5b506102ea6107b9366004614012565b6118bc565b3480156107ca57600080fd5b5061033b6107d93660046139a5565b611943565b3480156107ea57600080fd5b5061033b6119dd565b3480156107ff57600080fd5b5061042b61080e36600461402f565b63bc197c8160e01b95945050505050565b34801561082b57600080fd5b5061033b61083a3660046139a5565b6000908152600360205260409020600101546001600160401b031690565b6102ea6108663660046140c2565b6119e8565b34801561087757600080fd5b5061033b610886366004613c15565b611af7565b34801561089757600080fd5b50600c546001600160a01b03166103e8565b3480156108b557600080fd5b506040805180820190915260208082527f737570706f72743d627261766f2671756f72756d3d666f722c6162737461696e9082015261039e565b3480156108fb57600080fd5b5061033b7f150214d74d59b7d1e90c73fc22ef3d991dd0a76b046543d4d80ab92d2a50328f81565b34801561092f57600080fd5b506102ea61093e3660046139a5565b611b31565b34801561094f57600080fd5b5061033b61095e366004614105565b611bb8565b34801561096f57600080fd5b506102ea61097e3660046139a5565b611bd9565b34801561098f57600080fd5b5061042b61099e366004614131565b63f23a6e6160e01b95945050505050565b3480156109bb57600080fd5b5061033b6109ca3660046139a5565b611c60565b3480156109db57600080fd5b506103e87f000000000000000000000000000000000000000000000000000000000000000081565b6000610a17600c546001600160a01b031690565b905090565b6000610a2782611c6b565b92915050565b6000610a1760075490565b600080610adc610ad47fb3b3f3b703cd84ce352197dcff232b1b5d3cfb2025ce47cf04742d0651f1af888c8c8c8c604051610a74929190614199565b60405180910390208b80519060200120604051602001610ab9959493929190948552602085019390935260ff9190911660408401526060830152608082015260a00190565b60405160208183030381529060405280519060200120611c90565b868686611cbd565b9050610b228a828b8b8b8080601f0160208091040260200160405190810160405280939291908181526020018383808284376000920191909152508d9250611cdb915050565b9a9950505050505050505050565b610b38610a03565b6001600160a01b0316336001600160a01b031614610b685760405162461bcd60e51b81526004016102e1906141a9565b30610b71610a03565b6001600160a01b031614610bae5760008036604051610b91929190614199565b604051809103902090505b80610ba76004611e30565b03610b9c57505b610bb781611eaf565b50565b606060028054610bc9906141e0565b80601f0160208091040260200160405190810160405280929190818152602001828054610bf5906141e0565b8015610c425780601f10610c1757610100808354040283529160200191610c42565b820191906000526020600020905b815481529060010190602001808311610c2557829003601f168201915b5050505050905090565b600080610c5b86868686611af7565b90506004610c6882610fc0565b6007811115610c7957610c79613cf2565b14610c965760405162461bcd60e51b81526004016102e19061421a565b600c546040805163793d064960e11b815290516000926001600160a01b03169163f27a0c929160048083019260209291908290030181865afa158015610ce0573d6000803e3d6000fd5b505050506040513d601f19601f82011682018060405250810190610d04919061425b565b600c5460405163b1c5f42760e01b81529192506001600160a01b03169063b1c5f42790610d3e908a908a908a906000908b90600401614308565b602060405180830381865afa158015610d5b573d6000803e3d6000fd5b505050506040513d601f19601f82011682018060405250810190610d7f919061425b565b6000838152600d602052604080822092909255600c5491516308f2a0bb60e41b81526001600160a01b0390921691638f2a0bb091610dca918b918b918b91908b908990600401614356565b600060405180830381600087803b158015610de457600080fd5b505af1158015610df8573d6000803e3d6000fd5b505050507f9a2e42fd6722813d69113e7d0079d3d940171428df7373df9c7f7617cfda2892828242610e2a91906143c4565b604080519283526020830191909152015b60405180910390a15095945050505050565b600080610e5c86868686611af7565b90506000610e6982610fc0565b90506004816007811115610e7f57610e7f613cf2565b1480610e9c57506005816007811115610e9a57610e9a613cf2565b145b610eb85760405162461bcd60e51b81526004016102e19061421a565b60008281526003602052604090819020600201805460ff19166001179055517f712ae1383f79ac853f8d882153778e0260ef8f03b504e2866e0593e04d2b291f90610f069084815260200190565b60405180910390a1610f1b828888888861201d565b610f2882888888886120b7565b610f3582888888886120c4565b5095945050505050565b6000610a1760065490565b604080517f150214d74d59b7d1e90c73fc22ef3d991dd0a76b046543d4d80ab92d2a50328f602082015290810186905260ff851660608201526000908190610f9890610ad490608001610ab9565b9050610fb5878288604051806020016040528060008152506120fd565b979650505050505050565b6000610a2782612129565b600080610fda86868686611af7565b90506000610fe782610fc0565b6007811115610ff857610ff8613cf2565b146110455760405162461bcd60e51b815260206004820152601c60248201527f476f7665726e6f723a20746f6f206c61746520746f2063616e63656c0000000060448201526064016102e1565b600081815260036020526040902054600160401b90046001600160a01b0316336001600160a01b0316146110c65760405162461bcd60e51b815260206004820152602260248201527f476f7665726e6f723a206f6e6c792070726f706f7365722063616e2063616e63604482015261195b60f21b60648201526084016102e1565b6110d286868686612273565b9695505050505050565b60607f00000000000000000000000000000000000000000000000000000000000000006001600160a01b0316634bf5d7e96040518163ffffffff1660e01b8152600401600060405180830381865afa92505050801561115d57506040513d6000823e601f3d908101601f1916820160405261115a91908101906143d7565b60015b611199575060408051808201909152601d81527f6d6f64653d626c6f636b6e756d6265722666726f6d3d64656661756c74000000602082015290565b919050565b6000803390506111bf848285604051806020016040528060008152506120fd565b949350505050565b600080339050610fb587828888888080601f0160208091040260200160405190810160405280939291908181526020018383808284376000920191909152508a9250611cdb915050565b600b54600090808203611228575050600a54919050565b6000600b611237600184614444565b8154811061124757611247614457565b60009182526020918290206040805180820190915291015463ffffffff8116808352600160201b9091046001600160e01b0316928201929092529150841061129d57602001516001600160e01b03169392505050565b6112b16112a985612281565b600b906122ea565b6001600160e01b0316949350505050565b6112ca610a03565b6001600160a01b0316336001600160a01b0316146112fa5760405162461bcd60e51b81526004016102e1906141a9565b30611303610a03565b6001600160a01b0316146113405760008036604051611323929190614199565b604051809103902090505b806113396004611e30565b0361132e57505b610bb78161239d565b6000803390506110d286828787878080601f0160208091040260200160405190810160405280939291908181526020018383808284376000920191909152506120fd92505050565b60003361139e81846123de565b6113ea5760405162461bcd60e51b815260206004820152601d60248201527f476f7665726e6f723a2070726f706f736572207265737472696374656400000060448201526064016102e1565b60006113f46117f2565b65ffffffffffff1690506114066119dd565b6114158361095e600185614444565b101561147d5760405162461bcd60e51b815260206004820152603160248201527f476f7665726e6f723a2070726f706f73657220766f7465732062656c6f7720706044820152701c9bdc1bdcd85b081d1a1c995cda1bdb19607a1b60648201526084016102e1565b60006114928888888880519060200120611af7565b905086518851146114b55760405162461bcd60e51b81526004016102e19061446d565b85518851146114d65760405162461bcd60e51b81526004016102e19061446d565b60008851116115275760405162461bcd60e51b815260206004820152601860248201527f476f7665726e6f723a20656d7074792070726f706f73616c000000000000000060448201526064016102e1565b6000818152600360205260409020546001600160401b0316156115965760405162461bcd60e51b815260206004820152602160248201527f476f7665726e6f723a2070726f706f73616c20616c72656164792065786973746044820152607360f81b60648201526084016102e1565b60006115a0610f3f565b6115aa90846143c4565b905060006115b6610a2d565b6115c090836143c4565b90506040518060e001604052806115d6846124c9565b6001600160401b031681526001600160a01b038716602082015260006040820152606001611603836124c9565b6001600160401b039081168252600060208084018290526040808501839052606094850183905288835260038252918290208551815492870151878501519186166001600160e01b031990941693909317600160401b6001600160a01b039094168402176001600160e01b0316600160e01b60e09290921c91909102178155938501516080860151908416921c0217600183015560a08301516002909201805460c09094015161ffff1990941692151561ff00191692909217610100931515939093029290921790558a517f7d84a6263ae0d98d3329bd7b46bb4e8d6f98cd35a7adb45c274c8b7fd5ebd5e091859188918e918e9181111561170757611707613834565b60405190808252806020026020018201604052801561173a57816020015b60608152602001906001900390816117255790505b508d88888f604051611754999897969594939291906144ae565b60405180910390a1509098975050505050505050565b60006060808280808361179d7f000000000000000000000000000000000000000000000000000000000000000083612531565b6117c87f00000000000000000000000000000000000000000000000000000000000000006001612531565b60408051600080825260208201909252600f60f81b9b939a50919850469750309650945092509050565b60007f00000000000000000000000000000000000000000000000000000000000000006001600160a01b03166391ddadf46040518163ffffffff1660e01b8152600401602060405180830381865afa92505050801561186e575060408051601f3d908101601f1916820190925261186b91810190614585565b60015b61119957610a17436125dc565b6000611888848484612643565b90505b9392505050565b600b54600090156118b5576118a7600b6126d9565b6001600160e01b0316905090565b50600a5490565b6118c4610a03565b6001600160a01b0316336001600160a01b0316146118f45760405162461bcd60e51b81526004016102e1906141a9565b306118fd610a03565b6001600160a01b03161461193a576000803660405161191d929190614199565b604051809103902090505b806119336004611e30565b0361192857505b610bb781612709565b600c546000828152600d602052604080822054905163d45c443560e01b81526004810191909152909182916001600160a01b039091169063d45c443590602401602060405180830381865afa1580156119a0573d6000803e3d6000fd5b505050506040513d601f19601f820116820180604052508101906119c4919061425b565b9050806001146119d4578061188b565b60009392505050565b6000610a1760085490565b6119f0610a03565b6001600160a01b0316336001600160a01b031614611a205760405162461bcd60e51b81526004016102e1906141a9565b30611a29610a03565b6001600160a01b031614611a665760008036604051611a49929190614199565b604051809103902090505b80611a5f6004611e30565b03611a5457505b600080856001600160a01b0316858585604051611a84929190614199565b60006040518083038185875af1925050503d8060008114611ac1576040519150601f19603f3d011682016040523d82523d6000602084013e611ac6565b606091505b5091509150611aee82826040518060600160405280602881526020016146d860289139612772565b50505050505050565b600084848484604051602001611b1094939291906145ad565b60408051601f19818403018152919052805160209091012095945050505050565b611b39610a03565b6001600160a01b0316336001600160a01b031614611b695760405162461bcd60e51b81526004016102e1906141a9565b30611b72610a03565b6001600160a01b031614611baf5760008036604051611b92929190614199565b604051809103902090505b80611ba86004611e30565b03611b9d57505b610bb78161278b565b600061188b8383611bd460408051602081019091526000815290565b612643565b611be1610a03565b6001600160a01b0316336001600160a01b031614611c115760405162461bcd60e51b81526004016102e1906141a9565b30611c1a610a03565b6001600160a01b031614611c575760008036604051611c3a929190614199565b604051809103902090505b80611c506004611e30565b03611c4557505b610bb78161282c565b6000610a278261286d565b60006001600160e01b03198216636e665ced60e01b1480610a275750610a2782612917565b6000610a27611c9d6129b3565b8360405161190160f01b8152600281019290925260228201526042902090565b6000806000611cce87878787612ade565b91509150610f3581612ba2565b60008581526003602052604081206001611cf488610fc0565b6007811115611d0557611d05613cf2565b14611d5e5760405162461bcd60e51b815260206004820152602360248201527f476f7665726e6f723a20766f7465206e6f742063757272656e746c792061637460448201526269766560e81b60648201526084016102e1565b8054600090611d789088906001600160401b031686612643565b9050611d878888888488612cec565b8351600003611ddc57866001600160a01b03167fb8e138887d0aa13bab447e82de9d5c1777041ecd21ca36ba824ff1e6c07ddda489888489604051611dcf94939291906145f8565b60405180910390a2610fb5565b866001600160a01b03167fe2babfbac5889a709b63bb7f598b324e08bc5a4fb9ec647fb3cbc9ec07eb87128988848989604051611e1d959493929190614620565b60405180910390a2979650505050505050565b6000611e4b8254600f81810b600160801b909204900b131590565b15611e6957604051631ed9509560e11b815260040160405180910390fd5b508054600f0b6000818152600180840160205260408220805492905583546fffffffffffffffffffffffffffffffff191692016001600160801b03169190911790915590565b6064811115611f325760405162461bcd60e51b815260206004820152604360248201527f476f7665726e6f72566f74657351756f72756d4672616374696f6e3a2071756f60448201527f72756d4e756d657261746f72206f7665722071756f72756d44656e6f6d696e616064820152623a37b960e91b608482015260a4016102e1565b6000611f3c611892565b90508015801590611f4d5750600b54155b15611fb1576040805180820190915260008152600b9060208101611f7084612e66565b6001600160e01b039081169091528254600181018455600093845260209384902083519490930151909116600160201b0263ffffffff909316929092179101555b611fde611fcc611fbf6117f2565b65ffffffffffff16612281565b611fd584612e66565b600b9190612ecf565b505060408051828152602081018490527f0553476bf02ef2726e8ce5ced78d63e26e602e4a2257b1f559418e24b4633997910160405180910390a15050565b30612026610a03565b6001600160a01b0316146120b05760005b84518110156120ae57306001600160a01b031685828151811061205c5761205c614457565b60200260200101516001600160a01b0316036120a6576120a683828151811061208757612087614457565b6020026020010151805190602001206004612eea90919063ffffffff16565b600101612037565b505b5050505050565b6120b08585858585612f26565b306120cd610a03565b6001600160a01b0316146120b057600454600f81810b600160801b909204900b13156120b05760006004556120b0565b60006121208585858561211b60408051602081019091526000815290565b611cdb565b95945050505050565b60008061213583612f9a565b9050600481600781111561214b5761214b613cf2565b146121565792915050565b6000838152600d602052604090205480612171575092915050565b600c54604051632ab0f52960e01b8152600481018390526001600160a01b0390911690632ab0f52990602401602060405180830381865afa1580156121ba573d6000803e3d6000fd5b505050506040513d601f19601f820116820180604052508101906121de9190614666565b156121ed575060079392505050565b600c54604051632c258a9f60e11b8152600481018390526001600160a01b039091169063584b153e90602401602060405180830381865afa158015612236573d6000803e3d6000fd5b505050506040513d601f19601f8201168201806040525081019061225a9190614666565b15612269575060059392505050565b5060029392505050565b6000612120858585856130da565b600063ffffffff8211156122e65760405162461bcd60e51b815260206004820152602660248201527f53616665436173743a2076616c756520646f65736e27742066697420696e203360448201526532206269747360d01b60648201526084016102e1565b5090565b8154600090818160058111156123475760006123058461318c565b61230f9085614444565b60008881526020902090915081015463ffffffff908116908716101561233757809150612345565b6123428160016143c4565b92505b505b600061235587878585613274565b905080156123905761237a8761236c600184614444565b600091825260209091200190565b54600160201b90046001600160e01b0316610fb5565b6000979650505050505050565b60065460408051918252602082018390527fc565b045403dc03c2eea82b81a0465edad9e2e7fc4d97e11421c209da93d7a93910160405180910390a1600655565b805160009060348110156123f6576001915050610a27565b82810160131901516001600160a01b031981166b046e0e4dee0dee6cae47a60f60a31b1461242957600192505050610a27565b600080612437602885614444565b90505b838110156124a85760008061246e88848151811061245a5761245a614457565b01602001516001600160f81b0319166132d2565b91509150816124865760019650505050505050610a27565b8060ff166004856001600160a01b0316901b179350505080600101905061243a565b50856001600160a01b0316816001600160a01b031614935050505092915050565b60006001600160401b038211156122e65760405162461bcd60e51b815260206004820152602660248201527f53616665436173743a2076616c756520646f65736e27742066697420696e203660448201526534206269747360d01b60648201526084016102e1565b606060ff831461254b5761254483613364565b9050610a27565b818054612557906141e0565b80601f0160208091040260200160405190810160405280929190818152602001828054612583906141e0565b80156125d05780601f106125a5576101008083540402835291602001916125d0565b820191906000526020600020905b8154815290600101906020018083116125b357829003601f168201915b50505050509050610a27565b600065ffffffffffff8211156122e65760405162461bcd60e51b815260206004820152602660248201527f53616665436173743a2076616c756520646f65736e27742066697420696e203460448201526538206269747360d01b60648201526084016102e1565b604051630748d63560e31b81526001600160a01b038481166004830152602482018490526000917f000000000000000000000000000000000000000000000000000000000000000090911690633a46b1a890604401602060405180830381865afa1580156126b5573d6000803e3d6000fd5b505050506040513d601f19601f82011682018060405250810190611888919061425b565b805460009080156119d4576126f38361236c600184614444565b54600160201b90046001600160e01b031661188b565b600c54604080516001600160a01b03928316815291831660208301527f08f74ea46ef7894f65eabfb5e6e695de773a000b47c529ab559178069b226401910160405180910390a1600c80546001600160a01b0319166001600160a01b0392909216919091179055565b6060831561278157508161188b565b61188b83836133a3565b600081116127eb5760405162461bcd60e51b815260206004820152602760248201527f476f7665726e6f7253657474696e67733a20766f74696e6720706572696f6420604482015266746f6f206c6f7760c81b60648201526084016102e1565b60075460408051918252602082018390527f7e3f7f0708a84de9203036abaa450dccc85ad5ff52f78c170f3edb55cf5e8828910160405180910390a1600755565b60085460408051918252602082018390527fccb45da8d5717e6c4544694297c4ba5cf151d455c9bb0ed4fc7a38411bc05461910160405180910390a1600855565b6000606461287a83611211565b604051632394e7a360e21b8152600481018590527f00000000000000000000000000000000000000000000000000000000000000006001600160a01b031690638e539e8c90602401602060405180830381865afa1580156128df573d6000803e3d6000fd5b505050506040513d601f19601f82011682018060405250810190612903919061425b565b61290d9190614688565b610a2791906146b5565b600063288ace0360e11b6318df743f60e31b63bf26d89760e01b6379dd796f60e01b6001600160e01b0319861682148061295d57506001600160e01b0319868116908216145b8061297457506001600160e01b0319868116908516145b8061298f57506001600160e01b03198616630271189760e51b145b806110d257506301ffc9a760e01b6001600160e01b03198716149695505050505050565b6000306001600160a01b037f000000000000000000000000000000000000000000000000000000000000000016148015612a0c57507f000000000000000000000000000000000000000000000000000000000000000046145b15612a3657507f000000000000000000000000000000000000000000000000000000000000000090565b610a17604080517f8b73c3c69bb8fe3d512ecc4cf759cc79239f7b179b0ffacaa9a75d522b39400f60208201527f0000000000000000000000000000000000000000000000000000000000000000918101919091527f000000000000000000000000000000000000000000000000000000000000000060608201524660808201523060a082015260009060c00160405160208183030381529060405280519060200120905090565b6000807f7fffffffffffffffffffffffffffffff5d576e7357a4501ddfe92f46681b20a0831115612b155750600090506003612b99565b6040805160008082526020820180845289905260ff881692820192909252606081018690526080810185905260019060a0016020604051602081039080840390855afa158015612b69573d6000803e3d6000fd5b5050604051601f1901519150506001600160a01b038116612b9257600060019250925050612b99565b9150600090505b94509492505050565b6000816004811115612bb657612bb6613cf2565b03612bbe5750565b6001816004811115612bd257612bd2613cf2565b03612c1f5760405162461bcd60e51b815260206004820152601860248201527f45434453413a20696e76616c6964207369676e6174757265000000000000000060448201526064016102e1565b6002816004811115612c3357612c33613cf2565b03612c805760405162461bcd60e51b815260206004820152601f60248201527f45434453413a20696e76616c6964207369676e6174757265206c656e6774680060448201526064016102e1565b6003816004811115612c9457612c94613cf2565b03610bb75760405162461bcd60e51b815260206004820152602260248201527f45434453413a20696e76616c6964207369676e6174757265202773272076616c604482015261756560f01b60648201526084016102e1565b60008581526009602090815260408083206001600160a01b0388168452600381019092529091205460ff1615612d745760405162461bcd60e51b815260206004820152602760248201527f476f7665726e6f72566f74696e6753696d706c653a20766f746520616c726561604482015266191e4818d85cdd60ca1b60648201526084016102e1565b6001600160a01b03851660009081526003820160205260409020805460ff1916600117905560ff8416612dc05782816000016000828254612db591906143c4565b909155506120ae9050565b60001960ff851601612de05782816001016000828254612db591906143c4565b60011960ff851601612e005782816002016000828254612db591906143c4565b60405162461bcd60e51b815260206004820152603560248201527f476f7665726e6f72566f74696e6753696d706c653a20696e76616c69642076616044820152746c756520666f7220656e756d20566f74655479706560581b60648201526084016102e1565b60006001600160e01b038211156122e65760405162461bcd60e51b815260206004820152602760248201527f53616665436173743a2076616c756520646f65736e27742066697420696e20326044820152663234206269747360c81b60648201526084016102e1565b600080612edd8585856133cd565b915091505b935093915050565b8154600160801b90819004600f0b6000818152600180860160205260409091209390935583546001600160801b03908116939091011602179055565b600c5460405163e38335e560e01b81526001600160a01b039091169063e38335e5903490612f61908890889088906000908990600401614308565b6000604051808303818588803b158015612f7a57600080fd5b505af1158015612f8e573d6000803e3d6000fd5b50505050505050505050565b6000818152600360205260408120600281015460ff1615612fbe5750600792915050565b6002810154610100900460ff1615612fd95750600292915050565b6000838152600360205260408120546001600160401b0316908190036130415760405162461bcd60e51b815260206004820152601d60248201527f476f7665726e6f723a20756e6b6e6f776e2070726f706f73616c20696400000060448201526064016102e1565b600061304b6117f2565b65ffffffffffff16905080821061306757506000949350505050565b6000858152600360205260409020600101546001600160401b03168181106130955750600195945050505050565b61309e8661356c565b80156130bd575060008681526009602052604090208054600190910154115b156130ce5750600495945050505050565b50600395945050505050565b6000806130e9868686866135b8565b6000818152600d60205260409020549091501561212057600c546000828152600d60205260409081902054905163c4d252f560e01b81526001600160a01b039092169163c4d252f5916131429160040190815260200190565b600060405180830381600087803b15801561315c57600080fd5b505af1158015613170573d6000803e3d6000fd5b5050506000828152600d60205260408120555095945050505050565b60008160000361319e57506000919050565b600060016131ab846136c4565b901c6001901b905060018184816131c4576131c461469f565b048201901c905060018184816131dc576131dc61469f565b048201901c905060018184816131f4576131f461469f565b048201901c9050600181848161320c5761320c61469f565b048201901c905060018184816132245761322461469f565b048201901c9050600181848161323c5761323c61469f565b048201901c905060018184816132545761325461469f565b048201901c905061188b8182858161326e5761326e61469f565b04613758565b60005b818310156132ca57600061328b848461376e565b60008781526020902090915063ffffffff86169082015463ffffffff1611156132b6578092506132c4565b6132c18160016143c4565b93505b50613277565b509392505050565b60008060f883901c602f811180156132ed5750603a8160ff16105b1561330257600194602f199091019350915050565b8060ff166040108015613318575060478160ff16105b1561332d576001946036199091019350915050565b8060ff166060108015613343575060678160ff16105b15613358576001946056199091019350915050565b50600093849350915050565b6060600061337183613789565b604080516020808252818301909252919250600091906020820181803683375050509182525060208101929092525090565b8151156133b35781518083602001fd5b8060405162461bcd60e51b81526004016102e19190613a0e565b8254600090819080156135135760006133eb8761236c600185614444565b60408051808201909152905463ffffffff808216808452600160201b9092046001600160e01b03166020840152919250908716101561346c5760405162461bcd60e51b815260206004820152601b60248201527f436865636b706f696e743a2064656372656173696e67206b657973000000000060448201526064016102e1565b805163ffffffff8088169116036134b4578461348d8861236c600186614444565b80546001600160e01b0392909216600160201b0263ffffffff909216919091179055613503565b6040805180820190915263ffffffff80881682526001600160e01b0380881660208085019182528b54600181018d5560008d81529190912094519151909216600160201b029216919091179101555b602001519250839150612ee29050565b50506040805180820190915263ffffffff80851682526001600160e01b0380851660208085019182528854600181018a5560008a815291822095519251909316600160201b029190931617920191909155905081612ee2565b60008181526009602052604081206002810154600182015461358e91906143c4565b6000848152600360205260409020546135af906001600160401b0316611c60565b11159392505050565b6000806135c786868686611af7565b905060006135d482610fc0565b905060028160078111156135ea576135ea613cf2565b1415801561360a5750600681600781111561360757613607613cf2565b14155b80156136285750600781600781111561362557613625613cf2565b14155b6136745760405162461bcd60e51b815260206004820152601d60248201527f476f7665726e6f723a2070726f706f73616c206e6f742061637469766500000060448201526064016102e1565b60008281526003602052604090819020600201805461ff001916610100179055517f789cf55be980739dad1d0699b93b58e806b51c9d96619bfa8fe0a28abaa7b30c90610e3b9084815260200190565b600080608083901c156136d957608092831c92015b604083901c156136eb57604092831c92015b602083901c156136fd57602092831c92015b601083901c1561370f57601092831c92015b600883901c1561372157600892831c92015b600483901c1561373357600492831c92015b600283901c1561374557600292831c92015b600183901c15610a275760010192915050565b6000818310613767578161188b565b5090919050565b600061377d60028484186146b5565b61188b908484166143c4565b600060ff8216601f811115610a2757604051632cd44ac360e21b815260040160405180910390fd5b6000602082840312156137c357600080fd5b81356001600160e01b03198116811461188b57600080fd5b803560ff8116811461119957600080fd5b60008083601f8401126137fe57600080fd5b5081356001600160401b0381111561381557600080fd5b60208301915083602082850101111561382d57600080fd5b9250929050565b634e487b7160e01b600052604160045260246000fd5b604051601f8201601f191681016001600160401b038111828210171561387257613872613834565b604052919050565b60006001600160401b0382111561389357613893613834565b50601f01601f191660200190565b60006138b46138af8461387a565b61384a565b90508281528383830111156138c857600080fd5b828260208301376000602084830101529392505050565b600082601f8301126138f057600080fd5b61188b838335602085016138a1565b60008060008060008060008060e0898b03121561391b57600080fd5b8835975061392b60208a016137db565b965060408901356001600160401b038082111561394757600080fd5b6139538c838d016137ec565b909850965060608b013591508082111561396c57600080fd5b506139798b828c016138df565b94505061398860808a016137db565b925060a0890135915060c089013590509295985092959890939650565b6000602082840312156139b757600080fd5b5035919050565b60005b838110156139d95781810151838201526020016139c1565b50506000910152565b600081518084526139fa8160208601602086016139be565b601f01601f19169290920160200192915050565b60208152600061188b60208301846139e2565b6001600160a01b0381168114610bb757600080fd5b60008060008060808587031215613a4c57600080fd5b8435613a5781613a21565b93506020850135613a6781613a21565b92506040850135915060608501356001600160401b03811115613a8957600080fd5b613a95878288016138df565b91505092959194509250565b60006001600160401b03821115613aba57613aba613834565b5060051b60200190565b600082601f830112613ad557600080fd5b81356020613ae56138af83613aa1565b8083825260208201915060208460051b870101935086841115613b0757600080fd5b602086015b84811015613b2c578035613b1f81613a21565b8352918301918301613b0c565b509695505050505050565b600082601f830112613b4857600080fd5b81356020613b586138af83613aa1565b8083825260208201915060208460051b870101935086841115613b7a57600080fd5b602086015b84811015613b2c5780358352918301918301613b7f565b600082601f830112613ba757600080fd5b81356020613bb76138af83613aa1565b82815260059290921b84018101918181019086841115613bd657600080fd5b8286015b84811015613b2c5780356001600160401b03811115613bf95760008081fd5b613c078986838b01016138df565b845250918301918301613bda565b60008060008060808587031215613c2b57600080fd5b84356001600160401b0380821115613c4257600080fd5b613c4e88838901613ac4565b95506020870135915080821115613c6457600080fd5b613c7088838901613b37565b94506040870135915080821115613c8657600080fd5b50613c9387828801613b96565b949793965093946060013593505050565b600080600080600060a08688031215613cbc57600080fd5b85359450613ccc602087016137db565b9350613cda604087016137db565b94979396509394606081013594506080013592915050565b634e487b7160e01b600052602160045260246000fd5b6020810160088310613d2a57634e487b7160e01b600052602160045260246000fd5b91905290565b60008060408385031215613d4357600080fd5b823591506020830135613d5581613a21565b809150509250929050565b60008060408385031215613d7357600080fd5b82359150613d83602084016137db565b90509250929050565b600080600080600060808688031215613da457600080fd5b85359450613db4602087016137db565b935060408601356001600160401b0380821115613dd057600080fd5b613ddc89838a016137ec565b90955093506060880135915080821115613df557600080fd5b50613e02888289016138df565b9150509295509295909350565b60008060008060608587031215613e2557600080fd5b84359350613e35602086016137db565b925060408501356001600160401b03811115613e5057600080fd5b613e5c878288016137ec565b95989497509550505050565b60008060008060808587031215613e7e57600080fd5b84356001600160401b0380821115613e9557600080fd5b613ea188838901613ac4565b95506020870135915080821115613eb757600080fd5b613ec388838901613b37565b94506040870135915080821115613ed957600080fd5b613ee588838901613b96565b93506060870135915080821115613efb57600080fd5b508501601f81018713613f0d57600080fd5b613a95878235602084016138a1565b60008151808452602080850194506020840160005b83811015613f4d57815187529582019590820190600101613f31565b509495945050505050565b60ff60f81b8816815260e060208201526000613f7760e08301896139e2565b8281036040840152613f8981896139e2565b606084018890526001600160a01b038716608085015260a0840186905283810360c08501529050610b228185613f1c565b600080600060608486031215613fcf57600080fd5b8335613fda81613a21565b92506020840135915060408401356001600160401b03811115613ffc57600080fd5b614008868287016138df565b9150509250925092565b60006020828403121561402457600080fd5b813561188b81613a21565b600080600080600060a0868803121561404757600080fd5b853561405281613a21565b9450602086013561406281613a21565b935060408601356001600160401b038082111561407e57600080fd5b61408a89838a01613b37565b945060608801359150808211156140a057600080fd5b6140ac89838a01613b37565b93506080880135915080821115613df557600080fd5b600080600080606085870312156140d857600080fd5b84356140e381613a21565b93506020850135925060408501356001600160401b03811115613e5057600080fd5b6000806040838503121561411857600080fd5b823561412381613a21565b946020939093013593505050565b600080600080600060a0868803121561414957600080fd5b853561415481613a21565b9450602086013561416481613a21565b9350604086013592506060860135915060808601356001600160401b0381111561418d57600080fd5b613e02888289016138df565b8183823760009101908152919050565b60208082526018908201527f476f7665726e6f723a206f6e6c79476f7665726e616e63650000000000000000604082015260600190565b600181811c908216806141f457607f821691505b60208210810361421457634e487b7160e01b600052602260045260246000fd5b50919050565b60208082526021908201527f476f7665726e6f723a2070726f706f73616c206e6f74207375636365737366756040820152601b60fa1b606082015260800190565b60006020828403121561426d57600080fd5b5051919050565b60008151808452602080850194506020840160005b83811015613f4d5781516001600160a01b031687529582019590820190600101614289565b60008282518085526020808601955060208260051b8401016020860160005b848110156142fb57601f198684030189526142e98383516139e2565b988401989250908301906001016142cd565b5090979650505050505050565b60a08152600061431b60a0830188614274565b828103602084015261432d8188613f1c565b9050828103604084015261434181876142ae565b60608401959095525050608001529392505050565b60c08152600061436960c0830189614274565b828103602084015261437b8189613f1c565b9050828103604084015261438f81886142ae565b60608401969096525050608081019290925260a0909101529392505050565b634e487b7160e01b600052601160045260246000fd5b80820180821115610a2757610a276143ae565b6000602082840312156143e957600080fd5b81516001600160401b038111156143ff57600080fd5b8201601f8101841361441057600080fd5b805161441e6138af8261387a565b81815285602083850101111561443357600080fd5b6121208260208301602086016139be565b81810381811115610a2757610a276143ae565b634e487b7160e01b600052603260045260246000fd5b60208082526021908201527f476f7665726e6f723a20696e76616c69642070726f706f73616c206c656e67746040820152600d60fb1b606082015260800190565b60006101208b8352602060018060a01b038c16818501528160408501526144d78285018c614274565b915083820360608501526144eb828b613f1c565b915083820360808501528189518084528284019150828160051b850101838c0160005b8381101561453c57601f1987840301855261452a8383516139e2565b9486019492509085019060010161450e565b505086810360a0880152614550818c6142ae565b9450505050508560c08401528460e084015282810361010084015261457581856139e2565b9c9b505050505050505050505050565b60006020828403121561459757600080fd5b815165ffffffffffff8116811461188b57600080fd5b6080815260006145c06080830187614274565b82810360208401526145d28187613f1c565b905082810360408401526145e681866142ae565b91505082606083015295945050505050565b84815260ff841660208201528260408201526080606082015260006110d260808301846139e2565b85815260ff8516602082015283604082015260a06060820152600061464860a08301856139e2565b828103608084015261465a81856139e2565b98975050505050505050565b60006020828403121561467857600080fd5b8151801515811461188b57600080fd5b8082028115828204841417610a2757610a276143ae565b634e487b7160e01b600052601260045260246000fd5b6000826146d257634e487b7160e01b600052601260045260246000fd5b50049056fe476f7665726e6f723a2072656c617920726576657274656420776974686f7574206d657373616765a2646970667358221220fdca75974fec3f7773d83bf9a19850426ef8508a48fed3ad3d656fb96427045264736f6c63430008160033",
  "linkReferences": {},
  "deployedLinkReferences": {}
}