{
  "_format": "hh-sol-artifact-1",
  "contractName": "GFEICO",
  "sourceName": "contracts/GFEICO.sol",
  "abi": [
    {
      "inputs": [
        {
          "internalType": "address payable",
          "name": "_icoWallet",
          "type": "address"
        },
        {
          "internalType": "address",
          "name": "_token",
          "type": "address"
        }
      ],
      "stateMutability": "nonpayable",
      "type": "constructor"
    },
    {
      "anonymous": false,
      "inputs": [
        {
          "indexed": true,
          "internalType": "address",
          "name": "from",
          "type": "address"
        },
        {
          "indexed": true,
          "internalType": "address",
          "name": "to",
          "type": "address"
        },
        {
          "indexed": false,
          "internalType": "uint256",
          "name": "value",
          "type": "uint256"
        },
        {
          "indexed": false,
          "internalType": "uint256",
          "name": "tokens",
          "type": "uint256"
        }
      ],
      "name": "Invest",
      "type": "event"
    },
    {
      "anonymous": false,
      "inputs": [
        {
          "indexed": false,
          "internalType": "address",
          "name": "to",
          "type": "address"
        },
        {
          "indexed": false,
          "internalType": "uint256",
          "name": "amount",
          "type": "uint256"
        },
        {
          "indexed": false,
          "internalType": "uint256",
          "name": "time",
          "type": "uint256"
        }
      ],
      "name": "TokenBurn",
      "type": "event"
    },
    {
      "inputs": [],
      "name": "ICOState",
      "outputs": [
        {
          "internalType": "enum GFEICO.State",
          "name": "",
          "type": "uint8"
        }
      ],
      "stateMutability": "view",
      "type": "function"
    },
    {
      "inputs": [],
      "name": "ICOWallet",
      "outputs": [
        {
          "internalType": "address payable",
          "name": "",
          "type": "address"
        }
      ],
      "stateMutability": "view",
      "type": "function"
    },
    {
      "inputs": [],
      "name": "admin",
      "outputs": [
        {
          "internalType": "address",
          "name": "",
          "type": "address"
        }
      ],
      "stateMutability": "view",
      "type": "function"
    },
    {
      "inputs": [],
      "name": "calculatePrice",
      "outputs": [
        {
          "internalType": "uint256",
          "name": "",
          "type": "uint256"
        }
      ],
      "stateMutability": "view",
      "type": "function"
    },
    {
      "inputs": [
        {
          "internalType": "uint256",
          "name": "maticAmount",
          "type": "uint256"
        }
      ],
      "name": "calculateTokens",
      "outputs": [
        {
          "internalType": "uint256",
          "name": "",
          "type": "uint256"
        }
      ],
      "stateMutability": "view",
      "type": "function"
    },
    {
      "inputs": [
        {
          "internalType": "address",
          "name": "_newAdmin",
          "type": "address"
        }
      ],
      "name": "changeAdmin",
      "outputs": [],
      "stateMutability": "nonpayable",
      "type": "function"
    },
    {
      "inputs": [
        {
          "internalType": "address payable",
          "name": "_newICOWallet",
          "type": "address"
        }
      ],
      "name": "changeICOWallet",
      "outputs": [],
      "stateMutability": "nonpayable",
      "type": "function"
    },
    {
      "inputs": [],
      "name": "checkICOState",
      "outputs": [
        {
          "internalType": "bool",
          "name": "",
          "type": "bool"
        }
      ],
      "stateMutability": "view",
      "type": "function"
    },
    {
      "inputs": [],
      "name": "dailyProduction",
      "outputs": [
        {
          "internalType": "uint256",
          "name": "",
          "type": "uint256"
        }
      ],
      "stateMutability": "view",
      "type": "function"
    },
    {
      "inputs": [],
      "name": "endICO",
      "outputs": [],
      "stateMutability": "nonpayable",
      "type": "function"
    },
    {
      "inputs": [],
      "name": "endPrice",
      "outputs": [
        {
          "internalType": "uint256",
          "name": "",
          "type": "uint256"
        }
      ],
      "stateMutability": "view",
      "type": "function"
    },
    {
      "inputs": [],
      "name": "getCurrentTime",
      "outputs": [
        {
          "internalType": "uint256",
          "name": "",
          "type": "uint256"
        }
      ],
      "stateMutability": "view",
      "type": "function"
    },
    {
      "inputs": [],
      "name": "getICOStartTime",
      "outputs": [
        {
          "internalType": "uint256",
          "name": "",
          "type": "uint256"
        }
      ],
      "stateMutability": "view",
      "type": "function"
    },
    {
      "inputs": [],
      "name": "getICOState",
      "outputs": [
        {
          "internalType": "string",
          "name": "",
          "type": "string"
        }
      ],
      "stateMutability": "view",
      "type": "function"
    },
    {
      "inputs": [],
      "name": "getICOTokenBalance",
      "outputs": [
        {
          "internalType": "uint256",
          "name": "",
          "type": "uint256"
        }
      ],
      "stateMutability": "view",
      "type": "function"
    },
    {
      "inputs": [],
      "name": "getLatestPrice",
      "outputs": [
        {
          "internalType": "uint256",
          "name": "",
          "type": "uint256"
        }
      ],
      "stateMutability": "view",
      "type": "function"
    },
    {
      "inputs": [],
      "name": "haltICO",
      "outputs": [],
      "stateMutability": "nonpayable",
      "type": "function"
    },
    {
      "inputs": [],
      "name": "hardCap",
      "outputs": [
        {
          "internalType": "uint256",
          "name": "",
          "type": "uint256"
        }
      ],
      "stateMutability": "view",
      "type": "function"
    },
    {
      "inputs": [],
      "name": "icoEndTime",
      "outputs": [
        {
          "internalType": "uint256",
          "name": "",
          "type": "uint256"
        }
      ],
      "stateMutability": "view",
      "type": "function"
    },
    {
      "inputs": [],
      "name": "icoStartTime",
      "outputs": [
        {
          "internalType": "uint256",
          "name": "",
          "type": "uint256"
        }
      ],
      "stateMutability": "view",
      "type": "function"
    },
    {
      "inputs": [],
      "name": "invest",
      "outputs": [
        {
          "internalType": "bool",
          "name": "",
          "type": "bool"
        }
      ],
      "stateMutability": "payable",
      "type": "function"
    },
    {
      "inputs": [
        {
          "internalType": "address",
          "name": "",
          "type": "address"
        }
      ],
      "name": "investedAmountOf",
      "outputs": [
        {
          "internalType": "uint256",
          "name": "",
          "type": "uint256"
        }
      ],
      "stateMutability": "view",
      "type": "function"
    },
    {
      "inputs": [
        {
          "internalType": "address",
          "name": "_investor",
          "type": "address"
        }
      ],
      "name": "investorBalanceOf",
      "outputs": [
        {
          "internalType": "uint256",
          "name": "",
          "type": "uint256"
        }
      ],
      "stateMutability": "view",
      "type": "function"
    },
    {
      "inputs": [],
      "name": "maxInvestment",
      "outputs": [
        {
          "internalType": "uint256",
          "name": "",
          "type": "uint256"
        }
      ],
      "stateMutability": "view",
      "type": "function"
    },
    {
      "inputs": [],
      "name": "minInvestment",
      "outputs": [
        {
          "internalType": "uint256",
          "name": "",
          "type": "uint256"
        }
      ],
      "stateMutability": "view",
      "type": "function"
    },
    {
      "inputs": [],
      "name": "raisedAmount",
      "outputs": [
        {
          "internalType": "uint256",
          "name": "",
          "type": "uint256"
        }
      ],
      "stateMutability": "view",
      "type": "function"
    },
    {
      "inputs": [],
      "name": "resumeICO",
      "outputs": [],
      "stateMutability": "nonpayable",
      "type": "function"
    },
    {
      "inputs": [],
      "name": "softCap",
      "outputs": [
        {
          "internalType": "uint256",
          "name": "",
          "type": "uint256"
        }
      ],
      "stateMutability": "view",
      "type": "function"
    },
    {
      "inputs": [],
      "name": "startICO",
      "outputs": [
        {
          "internalType": "uint256",
          "name": "",
          "type": "uint256"
        }
      ],
      "stateMutability": "nonpayable",
      "type": "function"
    },
    {
      "inputs": [],
      "name": "startPrice",
      "outputs": [
        {
          "internalType": "uint256",
          "name": "",
          "type": "uint256"
        }
      ],
      "stateMutability": "view",
      "type": "function"
    },
    {
      "inputs": [],
      "name": "token",
      "outputs": [
        {
          "internalType": "contract GFE",
          "name": "",
          "type": "address"
        }
      ],
      "stateMutability": "view",
      "type": "function"
    },
    {
      "inputs": [],
      "name": "tokenSold",
      "outputs": [
        {
          "internalType": "uint256",
          "name": "",
          "type": "uint256"
        }
      ],
      "stateMutability": "view",
      "type": "function"
    },
    {
      "inputs": [
        {
          "internalType": "address",
          "name": "",
          "type": "address"
        }
      ],
      "name": "tokenSoldAmountOf",
      "outputs": [
        {
          "internalType": "uint256",
          "name": "",
          "type": "uint256"
        }
      ],
      "stateMutability": "view",
      "type": "function"
    },
    {
      "inputs": [],
      "name": "totalSupply",
      "outputs": [
        {
          "internalType": "uint256",
          "name": "",
          "type": "uint256"
        }
      ],
      "stateMutability": "view",
      "type": "function"
    }
  ],
  "bytecode": "0x60806040526014600355601e600455630ee6b2806005556305f5e1006006556000600755600060085560c860095562989680600a55610dac600d55600a610168600d546200004e9190620001e8565b6200005a9190620001e8565b600e553480156200006a57600080fd5b5060405162002e5138038062002e518339818101604052810190620000909190620002e2565b336000806101000a81548173ffffffffffffffffffffffffffffffffffffffff021916908373ffffffffffffffffffffffffffffffffffffffff16021790555081600160006101000a81548173ffffffffffffffffffffffffffffffffffffffff021916908373ffffffffffffffffffffffffffffffffffffffff16021790555080600260006101000a81548173ffffffffffffffffffffffffffffffffffffffff021916908373ffffffffffffffffffffffffffffffffffffffff16021790555073d0d5e3db44de05e9f294bb0a3beeaf030de24ada600f60006101000a81548173ffffffffffffffffffffffffffffffffffffffff021916908373ffffffffffffffffffffffffffffffffffffffff160217905550505062000329565b6000819050919050565b7f4e487b7100000000000000000000000000000000000000000000000000000000600052601160045260246000fd5b6000620001f582620001af565b91506200020283620001af565b92508282026200021281620001af565b915082820484148315176200022c576200022b620001b9565b5b5092915050565b600080fd5b600073ffffffffffffffffffffffffffffffffffffffff82169050919050565b6000620002658262000238565b9050919050565b620002778162000258565b81146200028357600080fd5b50565b60008151905062000297816200026c565b92915050565b6000620002aa8262000238565b9050919050565b620002bc816200029d565b8114620002c857600080fd5b50565b600081519050620002dc81620002b1565b92915050565b60008060408385031215620002fc57620002fb62000233565b5b60006200030c8582860162000286565b92505060206200031f85828601620002cb565b9150509250929050565b612b1880620003396000396000f3fe6080604052600436106101f75760003560e01c80638e15f4731161010d578063b868723e116100a0578063e8b5e51f1161006f578063e8b5e51f146106e3578063f1a9af8914610701578063f851a4401461072c578063fb86a40414610757578063fc0c546a14610782576101f7565b8063b868723e14610637578063c3a1fc5414610662578063c59ee1dc1461068d578063d348b409146106b8576101f7565b8063a1168e1e116100dc578063a1168e1e1461058b578063a7c3d71b146105b6578063ae764df3146105e1578063aeecdc2c1461060c576101f7565b80638e15f473146104f55780638f28397014610520578063906a26e0146105495780639cbd7da514610574576101f7565b80633a1793f11161019057806361fba37d1161015f57806361fba37d146103fa57806371aa60fd146104375780637e1055b6146104745780637fa8c1581461049f5780638ac2c680146104ca576101f7565b80633a1793f1146103625780634f2484091461038d578063519ee19e146103a45780636127b2ca146103cf576101f7565b80631aae3460116101cc5780631aae34601461029257806329aab515146102cf57806329cb924d1461030c5780632e659d9314610337576101f7565b80622e1316146101fc578062f53e6914610227578063129caa181461025057806318160ddd14610267575b600080fd5b34801561020857600080fd5b506102116107ad565b60405161021e9190611d19565b60405180910390f35b34801561023357600080fd5b5061024e60048036038101906102499190611d97565b6107b3565b005b34801561025c57600080fd5b50610265610885565b005b34801561027357600080fd5b5061027c6109b6565b6040516102899190611d19565b60405180910390f35b34801561029e57600080fd5b506102b960048036038101906102b49190611e02565b6109bc565b6040516102c69190611d19565b60405180910390f35b3480156102db57600080fd5b506102f660048036038101906102f19190611e02565b6109d4565b6040516103039190611d19565b60405180910390f35b34801561031857600080fd5b506103216109ec565b60405161032e9190611d19565b60405180910390f35b34801561034357600080fd5b5061034c6109f4565b6040516103599190611ebf565b60405180910390f35b34801561036e57600080fd5b50610377610b9a565b6040516103849190611d19565b60405180910390f35b34801561039957600080fd5b506103a2610ba0565b005b3480156103b057600080fd5b506103b9610fce565b6040516103c69190611d19565b60405180910390f35b3480156103db57600080fd5b506103e4610fd4565b6040516103f19190611d19565b60405180910390f35b34801561040657600080fd5b50610421600480360381019061041c9190611e02565b611077565b60405161042e9190611d19565b60405180910390f35b34801561044357600080fd5b5061045e60048036038101906104599190611f0d565b61111c565b60405161046b9190611d19565b60405180910390f35b34801561048057600080fd5b506104896111f6565b6040516104969190611d19565b60405180910390f35b3480156104ab57600080fd5b506104b46111fc565b6040516104c19190611d19565b60405180910390f35b3480156104d657600080fd5b506104df611354565b6040516104ec9190611d19565b60405180910390f35b34801561050157600080fd5b5061050a61135a565b6040516105179190611d19565b60405180910390f35b34801561052c57600080fd5b5061054760048036038101906105429190611e02565b61143f565b005b34801561055557600080fd5b5061055e611510565b60405161056b9190611d19565b60405180910390f35b34801561058057600080fd5b50610589611516565b005b34801561059757600080fd5b506105a0611646565b6040516105ad9190611d19565b60405180910390f35b3480156105c257600080fd5b506105cb611650565b6040516105d89190611d19565b60405180910390f35b3480156105ed57600080fd5b506105f6611656565b6040516106039190611f49565b60405180910390f35b34801561061857600080fd5b5061062161167c565b60405161062e9190611fdb565b60405180910390f35b34801561064357600080fd5b5061064c61168f565b6040516106599190611d19565b60405180910390f35b34801561066e57600080fd5b50610677611695565b6040516106849190612011565b60405180910390f35b34801561069957600080fd5b506106a26116c1565b6040516106af9190611d19565b60405180910390f35b3480156106c457600080fd5b506106cd6116c7565b6040516106da9190611d19565b60405180910390f35b6106eb6117c8565b6040516106f89190612011565b60405180910390f35b34801561070d57600080fd5b50610716611caa565b6040516107239190611d19565b60405180910390f35b34801561073857600080fd5b50610741611cb0565b60405161074e919061203b565b60405180910390f35b34801561076357600080fd5b5061076c611cd4565b6040516107799190611d19565b60405180910390f35b34801561078e57600080fd5b50610797611cda565b6040516107a491906120b5565b60405180910390f35b600a5481565b60008054906101000a900473ffffffffffffffffffffffffffffffffffffffff1673ffffffffffffffffffffffffffffffffffffffff163373ffffffffffffffffffffffffffffffffffffffff1614610841576040517f08c379a00000000000000000000000000000000000000000000000000000000081526004016108389061211c565b60405180910390fd5b80600160006101000a81548173ffffffffffffffffffffffffffffffffffffffff021916908373ffffffffffffffffffffffffffffffffffffffff16021790555050565b60008054906101000a900473ffffffffffffffffffffffffffffffffffffffff1673ffffffffffffffffffffffffffffffffffffffff163373ffffffffffffffffffffffffffffffffffffffff1614610913576040517f08c379a000000000000000000000000000000000000000000000000000000000815260040161090a9061211c565b60405180910390fd5b6001600381111561092757610926611f64565b5b601260009054906101000a900460ff16600381111561094957610948611f64565b5b14610989576040517f08c379a000000000000000000000000000000000000000000000000000000000815260040161098090612188565b60405180910390fd5b6003601260006101000a81548160ff021916908360038111156109af576109ae611f64565b5b0217905550565b600e5481565b60106020528060005260406000206000915090505481565b60116020528060005260406000206000915090505481565b600042905090565b606060006003811115610a0a57610a09611f64565b5b601260009054906101000a900460ff166003811115610a2c57610a2b611f64565b5b03610a6e576040518060400160405280600b81526020017f4e6f7420537461727465640000000000000000000000000000000000000000008152509050610b97565b60016003811115610a8257610a81611f64565b5b601260009054906101000a900460ff166003811115610aa457610aa3611f64565b5b03610ae6576040518060400160405280600781526020017f52756e6e696e67000000000000000000000000000000000000000000000000008152509050610b97565b60026003811115610afa57610af9611f64565b5b601260009054906101000a900460ff166003811115610b1c57610b1b611f64565b5b03610b5e576040518060400160405280600381526020017f456e6400000000000000000000000000000000000000000000000000000000008152509050610b97565b6040518060400160405280600681526020017f48616c746564000000000000000000000000000000000000000000000000000081525090505b90565b600d5481565b60008054906101000a900473ffffffffffffffffffffffffffffffffffffffff1673ffffffffffffffffffffffffffffffffffffffff163373ffffffffffffffffffffffffffffffffffffffff1614610c2e576040517f08c379a0000000000000000000000000000000000000000000000000000000008152600401610c259061211c565b60405180910390fd5b60016003811115610c4257610c41611f64565b5b601260009054906101000a900460ff166003811115610c6457610c63611f64565b5b14610ca4576040517f08c379a0000000000000000000000000000000000000000000000000000000008152600401610c9b906121f4565b60405180910390fd5b600c54421180610cb8575060055460075410155b610cf7576040517f08c379a0000000000000000000000000000000000000000000000000000000008152600401610cee90612286565b60405180910390fd5b6002601260006101000a81548160ff02191690836003811115610d1d57610d1c611f64565b5b02179055506006546007541015610e7f57600260009054906101000a900473ffffffffffffffffffffffffffffffffffffffff1673ffffffffffffffffffffffffffffffffffffffff166340c10f1960008054906101000a900473ffffffffffffffffffffffffffffffffffffffff16600260009054906101000a900473ffffffffffffffffffffffffffffffffffffffff1673ffffffffffffffffffffffffffffffffffffffff166318160ddd6040518163ffffffff1660e01b8152600401602060405180830381865afa158015610dfa573d6000803e3d6000fd5b505050506040513d601f19601f82011682018060405250810190610e1e91906122bb565b600e54610e2b9190612317565b6040518363ffffffff1660e01b8152600401610e4892919061234b565b600060405180830381600087803b158015610e6257600080fd5b505af1158015610e76573d6000803e3d6000fd5b50505050610fcc565b600260009054906101000a900473ffffffffffffffffffffffffffffffffffffffff1673ffffffffffffffffffffffffffffffffffffffff166340c10f1960008054906101000a900473ffffffffffffffffffffffffffffffffffffffff16600260009054906101000a900473ffffffffffffffffffffffffffffffffffffffff1673ffffffffffffffffffffffffffffffffffffffff166318160ddd6040518163ffffffff1660e01b8152600401602060405180830381865afa158015610f4b573d6000803e3d6000fd5b505050506040513d601f19601f82011682018060405250810190610f6f91906122bb565b600e54610f7c9190612317565b6040518363ffffffff1660e01b8152600401610f9992919061234b565b600060405180830381600087803b158015610fb357600080fd5b505af1158015610fc7573d6000803e3d6000fd5b505050505b565b60085481565b6000600260009054906101000a900473ffffffffffffffffffffffffffffffffffffffff1673ffffffffffffffffffffffffffffffffffffffff166370a08231306040518263ffffffff1660e01b8152600401611031919061203b565b602060405180830381865afa15801561104e573d6000803e3d6000fd5b505050506040513d601f19601f8201168201806040525081019061107291906122bb565b905090565b6000600260009054906101000a900473ffffffffffffffffffffffffffffffffffffffff1673ffffffffffffffffffffffffffffffffffffffff166370a08231836040518263ffffffff1660e01b81526004016110d4919061203b565b602060405180830381865afa1580156110f1573d6000803e3d6000fd5b505050506040513d601f19601f8201168201806040525081019061111591906122bb565b9050919050565b60008061112761135a565b90506000811161116c576040517f08c379a0000000000000000000000000000000000000000000000000000000008152600401611163906123c0565b60405180910390fd5b6000620f4240828561117e91906123e0565b6111889190612451565b905060095481116111ce576040517f08c379a00000000000000000000000000000000000000000000000000000000081526004016111c5906124ce565b60405180910390fd5b60006111d86116c7565b9050600081836111e89190612451565b905080945050505050919050565b600c5481565b60008060009054906101000a900473ffffffffffffffffffffffffffffffffffffffff1673ffffffffffffffffffffffffffffffffffffffff163373ffffffffffffffffffffffffffffffffffffffff161461128d576040517f08c379a00000000000000000000000000000000000000000000000000000000081526004016112849061211c565b60405180910390fd5b600060038111156112a1576112a0611f64565b5b601260009054906101000a900460ff1660038111156112c3576112c2611f64565b5b14611303576040517f08c379a00000000000000000000000000000000000000000000000000000000081526004016112fa9061253a565b60405180910390fd5b42600b8190555062015180600b5461131b919061255a565b600c819055506001601260006101000a81548160ff0219169083600381111561134757611346611f64565b5b0217905550600b54905090565b60095481565b600080600f60009054906101000a900473ffffffffffffffffffffffffffffffffffffffff1673ffffffffffffffffffffffffffffffffffffffff1663feaf968c6040518163ffffffff1660e01b815260040160a060405180830381865afa1580156113ca573d6000803e3d6000fd5b505050506040513d601f19601f820116820180604052508101906113ee9190612606565b5050509150506000811215611438576040517f08c379a000000000000000000000000000000000000000000000000000000000815260040161142f906126cd565b60405180910390fd5b8091505090565b60008054906101000a900473ffffffffffffffffffffffffffffffffffffffff1673ffffffffffffffffffffffffffffffffffffffff163373ffffffffffffffffffffffffffffffffffffffff16146114cd576040517f08c379a00000000000000000000000000000000000000000000000000000000081526004016114c49061211c565b60405180910390fd5b806000806101000a81548173ffffffffffffffffffffffffffffffffffffffff021916908373ffffffffffffffffffffffffffffffffffffffff16021790555050565b60065481565b60008054906101000a900473ffffffffffffffffffffffffffffffffffffffff1673ffffffffffffffffffffffffffffffffffffffff163373ffffffffffffffffffffffffffffffffffffffff16146115a4576040517f08c379a000000000000000000000000000000000000000000000000000000000815260040161159b9061211c565b60405180910390fd5b6003808111156115b7576115b6611f64565b5b601260009054906101000a900460ff1660038111156115d9576115d8611f64565b5b14611619576040517f08c379a000000000000000000000000000000000000000000000000000000000815260040161161090612739565b60405180910390fd5b6001601260006101000a81548160ff0219169083600381111561163f5761163e611f64565b5b0217905550565b6000600b54905090565b600b5481565b600160009054906101000a900473ffffffffffffffffffffffffffffffffffffffff1681565b601260009054906101000a900460ff1681565b60045481565b60006005546007541015806116ab5750600c5442115b156116b957600190506116be565b600090505b90565b60075481565b6000600260038111156116dd576116dc611f64565b5b601260009054906101000a900460ff1660038111156116ff576116fe611f64565b5b1415801561174157506000600381111561171c5761171b611f64565b5b601260009054906101000a900460ff16600381111561173e5761173d611f64565b5b14155b611780576040517f08c379a0000000000000000000000000000000000000000000000000000000008152600401611777906127a5565b60405180910390fd5b60006003546004546117929190612317565b90506000600e54600854836117a791906123e0565b6117b19190612451565b6003546117be919061255a565b9050809250505090565b6000600160038111156117de576117dd611f64565b5b601260009054906101000a900460ff166003811115611800576117ff611f64565b5b14611840576040517f08c379a000000000000000000000000000000000000000000000000000000000815260040161183790612811565b60405180910390fd5b6001341015611884576040517f08c379a000000000000000000000000000000000000000000000000000000000815260040161187b9061287d565b60405180910390fd5b6000670de0b6b3a76400003461189a9190612451565b90506000620f42406118aa61135a565b836118b591906123e0565b6118bf9190612451565b9050600954811015611906576040517f08c379a00000000000000000000000000000000000000000000000000000000081526004016118fd9061287d565b60405180910390fd5b600a5481111561194b576040517f08c379a0000000000000000000000000000000000000000000000000000000008152600401611942906128e9565b60405180910390fd5b6005546007541115611992576040517f08c379a000000000000000000000000000000000000000000000000000000000815260040161198990612955565b60405180910390fd5b600c544211156119d7576040517f08c379a00000000000000000000000000000000000000000000000000000000081526004016119ce906129e7565b60405180910390fd5b6000600160009054906101000a900473ffffffffffffffffffffffffffffffffffffffff1673ffffffffffffffffffffffffffffffffffffffff1634604051611a1f90612a38565b60006040518083038185875af1925050503d8060008114611a5c576040519150601f19603f3d011682016040523d82523d6000602084013e611a61565b606091505b5050905080611aa5576040517f08c379a0000000000000000000000000000000000000000000000000000000008152600401611a9c90612a99565b60405180910390fd5b8160076000828254611ab7919061255a565b9250508190555081601060003373ffffffffffffffffffffffffffffffffffffffff1673ffffffffffffffffffffffffffffffffffffffff1681526020019081526020016000206000828254611b0d919061255a565b925050819055506000611b1f8461111c565b90506000670de0b6b3a764000082611b3791906123e0565b9050600260009054906101000a900473ffffffffffffffffffffffffffffffffffffffff1673ffffffffffffffffffffffffffffffffffffffff166340c10f1933836040518363ffffffff1660e01b8152600401611b9692919061234b565b600060405180830381600087803b158015611bb057600080fd5b505af1158015611bc4573d6000803e3d6000fd5b505050508160086000828254611bda919061255a565b9250508190555081601160003373ffffffffffffffffffffffffffffffffffffffff1673ffffffffffffffffffffffffffffffffffffffff1681526020019081526020016000206000828254611c30919061255a565b925050819055503373ffffffffffffffffffffffffffffffffffffffff163073ffffffffffffffffffffffffffffffffffffffff167f2e206bbdd5787cd6d3e97144dec044f9f15dd77a257afd27fa70cad6f03feae33484604051611c96929190612ab9565b60405180910390a360019550505050505090565b60035481565b60008054906101000a900473ffffffffffffffffffffffffffffffffffffffff1681565b60055481565b600260009054906101000a900473ffffffffffffffffffffffffffffffffffffffff1681565b6000819050919050565b611d1381611d00565b82525050565b6000602082019050611d2e6000830184611d0a565b92915050565b600080fd5b600073ffffffffffffffffffffffffffffffffffffffff82169050919050565b6000611d6482611d39565b9050919050565b611d7481611d59565b8114611d7f57600080fd5b50565b600081359050611d9181611d6b565b92915050565b600060208284031215611dad57611dac611d34565b5b6000611dbb84828501611d82565b91505092915050565b6000611dcf82611d39565b9050919050565b611ddf81611dc4565b8114611dea57600080fd5b50565b600081359050611dfc81611dd6565b92915050565b600060208284031215611e1857611e17611d34565b5b6000611e2684828501611ded565b91505092915050565b600081519050919050565b600082825260208201905092915050565b60005b83811015611e69578082015181840152602081019050611e4e565b60008484015250505050565b6000601f19601f8301169050919050565b6000611e9182611e2f565b611e9b8185611e3a565b9350611eab818560208601611e4b565b611eb481611e75565b840191505092915050565b60006020820190508181036000830152611ed98184611e86565b905092915050565b611eea81611d00565b8114611ef557600080fd5b50565b600081359050611f0781611ee1565b92915050565b600060208284031215611f2357611f22611d34565b5b6000611f3184828501611ef8565b91505092915050565b611f4381611d59565b82525050565b6000602082019050611f5e6000830184611f3a565b92915050565b7f4e487b7100000000000000000000000000000000000000000000000000000000600052602160045260246000fd5b60048110611fa457611fa3611f64565b5b50565b6000819050611fb582611f93565b919050565b6000611fc582611fa7565b9050919050565b611fd581611fba565b82525050565b6000602082019050611ff06000830184611fcc565b92915050565b60008115159050919050565b61200b81611ff6565b82525050565b60006020820190506120266000830184612002565b92915050565b61203581611dc4565b82525050565b6000602082019050612050600083018461202c565b92915050565b6000819050919050565b600061207b61207661207184611d39565b612056565b611d39565b9050919050565b600061208d82612060565b9050919050565b600061209f82612082565b9050919050565b6120af81612094565b82525050565b60006020820190506120ca60008301846120a6565b92915050565b7f41646d696e204f6e6c792066756e6374696f6e00000000000000000000000000600082015250565b6000612106601383611e3a565b9150612111826120d0565b602082019050919050565b60006020820190508181036000830152612135816120f9565b9050919050565b7f49434f2069736e27742072756e6e696e67207965740000000000000000000000600082015250565b6000612172601583611e3a565b915061217d8261213c565b602082019050919050565b600060208201905081810360008301526121a181612165565b9050919050565b7f49434f2053686f756c6420626520696e2052756e6e696e672053746174650000600082015250565b60006121de601e83611e3a565b91506121e9826121a8565b602082019050919050565b6000602082019050818103600083015261220d816121d1565b9050919050565b7f49434f2048617264636170206f722074696d656c696d6974206e6f742072656160008201527f6368656400000000000000000000000000000000000000000000000000000000602082015250565b6000612270602483611e3a565b915061227b82612214565b604082019050919050565b6000602082019050818103600083015261229f81612263565b9050919050565b6000815190506122b581611ee1565b92915050565b6000602082840312156122d1576122d0611d34565b5b60006122df848285016122a6565b91505092915050565b7f4e487b7100000000000000000000000000000000000000000000000000000000600052601160045260246000fd5b600061232282611d00565b915061232d83611d00565b9250828203905081811115612345576123446122e8565b5b92915050565b6000604082019050612360600083018561202c565b61236d6020830184611d0a565b9392505050565b7f5072696365206973206e6f7420617661696c61626c6500000000000000000000600082015250565b60006123aa601683611e3a565b91506123b582612374565b602082019050919050565b600060208201905081810360008301526123d98161239d565b9050919050565b60006123eb82611d00565b91506123f683611d00565b925082820261240481611d00565b9150828204841483151761241b5761241a6122e8565b5b5092915050565b7f4e487b7100000000000000000000000000000000000000000000000000000000600052601260045260246000fd5b600061245c82611d00565b915061246783611d00565b92508261247757612476612422565b5b828204905092915050565b7f5468652076616c756520697320756e646572206d696e496e766573746d656e74600082015250565b60006124b8602083611e3a565b91506124c382612482565b602082019050919050565b600060208201905081810360008301526124e7816124ab565b9050919050565b7f49434f2069736e277420696e206265666f726520737461746500000000000000600082015250565b6000612524601983611e3a565b915061252f826124ee565b602082019050919050565b6000602082019050818103600083015261255381612517565b9050919050565b600061256582611d00565b915061257083611d00565b9250828201905080821115612588576125876122e8565b5b92915050565b600069ffffffffffffffffffff82169050919050565b6125ad8161258e565b81146125b857600080fd5b50565b6000815190506125ca816125a4565b92915050565b6000819050919050565b6125e3816125d0565b81146125ee57600080fd5b50565b600081519050612600816125da565b92915050565b600080600080600060a0868803121561262257612621611d34565b5b6000612630888289016125bb565b9550506020612641888289016125f1565b9450506040612652888289016122a6565b9350506060612663888289016122a6565b9250506080612674888289016125bb565b9150509295509295909350565b7f4e656761746976652070726963652072657475726e6564000000000000000000600082015250565b60006126b7601783611e3a565b91506126c282612681565b602082019050919050565b600060208201905081810360008301526126e6816126aa565b9050919050565b7f49434f2053746174652069736e27742068616c74656420796574000000000000600082015250565b6000612723601a83611e3a565b915061272e826126ed565b602082019050919050565b6000602082019050818103600083015261275281612716565b9050919050565b7f49434f20697320696e204245464f5245206f7220454e44000000000000000000600082015250565b600061278f601783611e3a565b915061279a82612759565b602082019050919050565b600060208201905081810360008301526127be81612782565b9050919050565b7f49434f2069736e27742072756e6e696e67000000000000000000000000000000600082015250565b60006127fb601183611e3a565b9150612806826127c5565b602082019050919050565b6000602082019050818103600083015261282a816127ee565b9050919050565b7f436865636b204d696e20616e64204d617820496e766573746d656e7400000000600082015250565b6000612867601c83611e3a565b915061287282612831565b602082019050919050565b600060208201905081810360008301526128968161285a565b9050919050565b7f436865636b204d6178496e766573746d656e7400000000000000000000000000600082015250565b60006128d3601383611e3a565b91506128de8261289d565b602082019050919050565b60006020820190508181036000830152612902816128c6565b9050919050565b7f53656e642077697468696e20686172646361702072616e676500000000000000600082015250565b600061293f601983611e3a565b915061294a82612909565b602082019050919050565b6000602082019050818103600083015261296e81612932565b9050919050565b7f49434f20616c72656164792052656163686564204d6178696d756d2074696d6560008201527f206c696d69740000000000000000000000000000000000000000000000000000602082015250565b60006129d1602683611e3a565b91506129dc82612975565b604082019050919050565b60006020820190508181036000830152612a00816129c4565b9050919050565b600081905092915050565b50565b6000612a22600083612a07565b9150612a2d82612a12565b600082019050919050565b6000612a4382612a15565b9150819050919050565b7f4661696c656420746f20496e7665737400000000000000000000000000000000600082015250565b6000612a83601083611e3a565b9150612a8e82612a4d565b602082019050919050565b60006020820190508181036000830152612ab281612a76565b9050919050565b6000604082019050612ace6000830185611d0a565b612adb6020830184611d0a565b939250505056fea264697066735822122076ff4b07f5401e8cd8c5ebaddd1274891120582685d57c5ed072ed7df1cffbb764736f6c63430008160033",
  "linkReferences": {},
  "deployedLinkReferences": {}
}